{
  "contractName": "CreatureAccessoryLootBox",
  "abi": [
    {
      "inputs": [
        {
          "internalType": "address",
          "name": "_proxyRegistryAddress",
          "type": "address"
        }
      ],
      "stateMutability": "nonpayable",
      "type": "constructor"
    },
    {
      "anonymous": false,
      "inputs": [
        {
          "indexed": true,
          "internalType": "address",
          "name": "account",
          "type": "address"
        },
        {
          "indexed": true,
          "internalType": "address",
          "name": "operator",
          "type": "address"
        },
        {
          "indexed": false,
          "internalType": "bool",
          "name": "approved",
          "type": "bool"
        }
      ],
      "name": "ApprovalForAll",
      "type": "event"
    },
    {
      "anonymous": false,
      "inputs": [
        {
          "indexed": false,
          "internalType": "address",
          "name": "userAddress",
          "type": "address"
        },
        {
          "indexed": false,
          "internalType": "address payable",
          "name": "relayerAddress",
          "type": "address"
        },
        {
          "indexed": false,
          "internalType": "bytes",
          "name": "functionSignature",
          "type": "bytes"
        }
      ],
      "name": "MetaTransactionExecuted",
      "type": "event"
    },
    {
      "anonymous": false,
      "inputs": [
        {
          "indexed": true,
          "internalType": "address",
          "name": "previousOwner",
          "type": "address"
        },
        {
          "indexed": true,
          "internalType": "address",
          "name": "newOwner",
          "type": "address"
        }
      ],
      "name": "OwnershipTransferred",
      "type": "event"
    },
    {
      "anonymous": false,
      "inputs": [
        {
          "indexed": true,
          "internalType": "address",
          "name": "operator",
          "type": "address"
        },
        {
          "indexed": true,
          "internalType": "address",
          "name": "from",
          "type": "address"
        },
        {
          "indexed": true,
          "internalType": "address",
          "name": "to",
          "type": "address"
        },
        {
          "indexed": false,
          "internalType": "uint256[]",
          "name": "ids",
          "type": "uint256[]"
        },
        {
          "indexed": false,
          "internalType": "uint256[]",
          "name": "values",
          "type": "uint256[]"
        }
      ],
      "name": "TransferBatch",
      "type": "event"
    },
    {
      "anonymous": false,
      "inputs": [
        {
          "indexed": true,
          "internalType": "address",
          "name": "operator",
          "type": "address"
        },
        {
          "indexed": true,
          "internalType": "address",
          "name": "from",
          "type": "address"
        },
        {
          "indexed": true,
          "internalType": "address",
          "name": "to",
          "type": "address"
        },
        {
          "indexed": false,
          "internalType": "uint256",
          "name": "id",
          "type": "uint256"
        },
        {
          "indexed": false,
          "internalType": "uint256",
          "name": "value",
          "type": "uint256"
        }
      ],
      "name": "TransferSingle",
      "type": "event"
    },
    {
      "anonymous": false,
      "inputs": [
        {
          "indexed": false,
          "internalType": "string",
          "name": "value",
          "type": "string"
        },
        {
          "indexed": true,
          "internalType": "uint256",
          "name": "id",
          "type": "uint256"
        }
      ],
      "name": "URI",
      "type": "event"
    },
    {
      "inputs": [],
      "name": "ERC712_VERSION",
      "outputs": [
        {
          "internalType": "string",
          "name": "",
          "type": "string"
        }
      ],
      "stateMutability": "view",
      "type": "function"
    },
    {
      "inputs": [
        {
          "internalType": "address",
          "name": "account",
          "type": "address"
        },
        {
          "internalType": "uint256",
          "name": "id",
          "type": "uint256"
        }
      ],
      "name": "balanceOf",
      "outputs": [
        {
          "internalType": "uint256",
          "name": "",
          "type": "uint256"
        }
      ],
      "stateMutability": "view",
      "type": "function"
    },
    {
      "inputs": [
        {
          "internalType": "address[]",
          "name": "accounts",
          "type": "address[]"
        },
        {
          "internalType": "uint256[]",
          "name": "ids",
          "type": "uint256[]"
        }
      ],
      "name": "balanceOfBatch",
      "outputs": [
        {
          "internalType": "uint256[]",
          "name": "",
          "type": "uint256[]"
        }
      ],
      "stateMutability": "view",
      "type": "function"
    },
    {
      "inputs": [
        {
          "internalType": "address",
          "name": "_to",
          "type": "address"
        },
        {
          "internalType": "uint256[]",
          "name": "_ids",
          "type": "uint256[]"
        },
        {
          "internalType": "uint256[]",
          "name": "_quantities",
          "type": "uint256[]"
        },
        {
          "internalType": "bytes",
          "name": "_data",
          "type": "bytes"
        }
      ],
      "name": "batchMint",
      "outputs": [],
      "stateMutability": "nonpayable",
      "type": "function"
    },
    {
      "inputs": [
        {
          "internalType": "address",
          "name": "_initialOwner",
          "type": "address"
        },
        {
          "internalType": "uint256",
          "name": "_id",
          "type": "uint256"
        },
        {
          "internalType": "uint256",
          "name": "_initialSupply",
          "type": "uint256"
        },
        {
          "internalType": "string",
          "name": "_uri",
          "type": "string"
        },
        {
          "internalType": "bytes",
          "name": "_data",
          "type": "bytes"
        }
      ],
      "name": "create",
      "outputs": [
        {
          "internalType": "uint256",
          "name": "",
          "type": "uint256"
        }
      ],
      "stateMutability": "nonpayable",
      "type": "function"
    },
    {
      "inputs": [
        {
          "internalType": "uint256",
          "name": "",
          "type": "uint256"
        }
      ],
      "name": "creators",
      "outputs": [
        {
          "internalType": "address",
          "name": "",
          "type": "address"
        }
      ],
      "stateMutability": "view",
      "type": "function"
    },
    {
      "inputs": [
        {
          "internalType": "address",
          "name": "userAddress",
          "type": "address"
        },
        {
          "internalType": "bytes",
          "name": "functionSignature",
          "type": "bytes"
        },
        {
          "internalType": "bytes32",
          "name": "sigR",
          "type": "bytes32"
        },
        {
          "internalType": "bytes32",
          "name": "sigS",
          "type": "bytes32"
        },
        {
          "internalType": "uint8",
          "name": "sigV",
          "type": "uint8"
        }
      ],
      "name": "executeMetaTransaction",
      "outputs": [
        {
          "internalType": "bytes",
          "name": "",
          "type": "bytes"
        }
      ],
      "stateMutability": "payable",
      "type": "function"
    },
    {
      "inputs": [
        {
          "internalType": "uint256",
          "name": "_id",
          "type": "uint256"
        }
      ],
      "name": "exists",
      "outputs": [
        {
          "internalType": "bool",
          "name": "",
          "type": "bool"
        }
      ],
      "stateMutability": "view",
      "type": "function"
    },
    {
      "inputs": [],
      "name": "getChainId",
      "outputs": [
        {
          "internalType": "uint256",
          "name": "",
          "type": "uint256"
        }
      ],
      "stateMutability": "view",
      "type": "function"
    },
    {
      "inputs": [],
      "name": "getDomainSeperator",
      "outputs": [
        {
          "internalType": "bytes32",
          "name": "",
          "type": "bytes32"
        }
      ],
      "stateMutability": "view",
      "type": "function"
    },
    {
      "inputs": [
        {
          "internalType": "address",
          "name": "user",
          "type": "address"
        }
      ],
      "name": "getNonce",
      "outputs": [
        {
          "internalType": "uint256",
          "name": "nonce",
          "type": "uint256"
        }
      ],
      "stateMutability": "view",
      "type": "function"
    },
    {
      "inputs": [
        {
          "internalType": "address",
          "name": "_owner",
          "type": "address"
        },
        {
          "internalType": "address",
          "name": "_operator",
          "type": "address"
        }
      ],
      "name": "isApprovedForAll",
      "outputs": [
        {
          "internalType": "bool",
          "name": "isOperator",
          "type": "bool"
        }
      ],
      "stateMutability": "view",
      "type": "function"
    },
    {
      "inputs": [],
      "name": "name",
      "outputs": [
        {
          "internalType": "string",
          "name": "",
          "type": "string"
        }
      ],
      "stateMutability": "view",
      "type": "function"
    },
    {
      "inputs": [],
      "name": "owner",
      "outputs": [
        {
          "internalType": "address",
          "name": "",
          "type": "address"
        }
      ],
      "stateMutability": "view",
      "type": "function"
    },
    {
      "inputs": [],
      "name": "renounceOwnership",
      "outputs": [],
      "stateMutability": "nonpayable",
      "type": "function"
    },
    {
      "inputs": [
        {
          "internalType": "address",
          "name": "from",
          "type": "address"
        },
        {
          "internalType": "address",
          "name": "to",
          "type": "address"
        },
        {
          "internalType": "uint256[]",
          "name": "ids",
          "type": "uint256[]"
        },
        {
          "internalType": "uint256[]",
          "name": "amounts",
          "type": "uint256[]"
        },
        {
          "internalType": "bytes",
          "name": "data",
          "type": "bytes"
        }
      ],
      "name": "safeBatchTransferFrom",
      "outputs": [],
      "stateMutability": "nonpayable",
      "type": "function"
    },
    {
      "inputs": [
        {
          "internalType": "address",
          "name": "from",
          "type": "address"
        },
        {
          "internalType": "address",
          "name": "to",
          "type": "address"
        },
        {
          "internalType": "uint256",
          "name": "id",
          "type": "uint256"
        },
        {
          "internalType": "uint256",
          "name": "amount",
          "type": "uint256"
        },
        {
          "internalType": "bytes",
          "name": "data",
          "type": "bytes"
        }
      ],
      "name": "safeTransferFrom",
      "outputs": [],
      "stateMutability": "nonpayable",
      "type": "function"
    },
    {
      "inputs": [
        {
          "internalType": "address",
          "name": "operator",
          "type": "address"
        },
        {
          "internalType": "bool",
          "name": "approved",
          "type": "bool"
        }
      ],
      "name": "setApprovalForAll",
      "outputs": [],
      "stateMutability": "nonpayable",
      "type": "function"
    },
    {
      "inputs": [
        {
          "internalType": "address",
          "name": "_to",
          "type": "address"
        },
        {
          "internalType": "uint256[]",
          "name": "_ids",
          "type": "uint256[]"
        }
      ],
      "name": "setCreator",
      "outputs": [],
      "stateMutability": "nonpayable",
      "type": "function"
    },
    {
      "inputs": [
        {
          "internalType": "uint256",
          "name": "_tokenId",
          "type": "uint256"
        },
        {
          "internalType": "string",
          "name": "_newURI",
          "type": "string"
        }
      ],
      "name": "setCustomURI",
      "outputs": [],
      "stateMutability": "nonpayable",
      "type": "function"
    },
    {
      "inputs": [
        {
          "internalType": "string",
          "name": "_newURI",
          "type": "string"
        }
      ],
      "name": "setURI",
      "outputs": [],
      "stateMutability": "nonpayable",
      "type": "function"
    },
    {
      "inputs": [
        {
          "internalType": "bytes4",
          "name": "interfaceId",
          "type": "bytes4"
        }
      ],
      "name": "supportsInterface",
      "outputs": [
        {
          "internalType": "bool",
          "name": "",
          "type": "bool"
        }
      ],
      "stateMutability": "view",
      "type": "function"
    },
    {
      "inputs": [],
      "name": "symbol",
      "outputs": [
        {
          "internalType": "string",
          "name": "",
          "type": "string"
        }
      ],
      "stateMutability": "view",
      "type": "function"
    },
    {
      "inputs": [
        {
          "internalType": "uint256",
          "name": "",
          "type": "uint256"
        }
      ],
      "name": "tokenSupply",
      "outputs": [
        {
          "internalType": "uint256",
          "name": "",
          "type": "uint256"
        }
      ],
      "stateMutability": "view",
      "type": "function"
    },
    {
      "inputs": [
        {
          "internalType": "uint256",
          "name": "_id",
          "type": "uint256"
        }
      ],
      "name": "totalSupply",
      "outputs": [
        {
          "internalType": "uint256",
          "name": "",
          "type": "uint256"
        }
      ],
      "stateMutability": "view",
      "type": "function"
    },
    {
      "inputs": [
        {
          "internalType": "address",
          "name": "newOwner",
          "type": "address"
        }
      ],
      "name": "transferOwnership",
      "outputs": [],
      "stateMutability": "nonpayable",
      "type": "function"
    },
    {
      "inputs": [
        {
          "internalType": "uint256",
          "name": "_id",
          "type": "uint256"
        }
      ],
      "name": "uri",
      "outputs": [
        {
          "internalType": "string",
          "name": "",
          "type": "string"
        }
      ],
      "stateMutability": "view",
      "type": "function"
    },
    {
      "inputs": [
        {
          "internalType": "address",
          "name": "_factoryAddress",
          "type": "address"
        },
        {
          "internalType": "uint256",
          "name": "_numOptions",
          "type": "uint256"
        },
        {
          "internalType": "uint256",
          "name": "_numClasses",
          "type": "uint256"
        },
        {
          "internalType": "uint256",
          "name": "_seed",
          "type": "uint256"
        }
      ],
      "name": "setState",
      "outputs": [],
      "stateMutability": "nonpayable",
      "type": "function"
    },
    {
      "inputs": [
        {
          "internalType": "uint256",
          "name": "_classId",
          "type": "uint256"
        },
        {
          "internalType": "uint256[]",
          "name": "_tokenIds",
          "type": "uint256[]"
        }
      ],
      "name": "setTokenIdsForClass",
      "outputs": [],
      "stateMutability": "nonpayable",
      "type": "function"
    },
    {
      "inputs": [
        {
          "internalType": "uint256",
          "name": "_option",
          "type": "uint256"
        },
        {
          "internalType": "uint256",
          "name": "_maxQuantityPerOpen",
          "type": "uint256"
        },
        {
          "internalType": "uint16[]",
          "name": "_classProbabilities",
          "type": "uint16[]"
        },
        {
          "internalType": "uint16[]",
          "name": "_guarantees",
          "type": "uint16[]"
        }
      ],
      "name": "setOptionSettings",
      "outputs": [],
      "stateMutability": "nonpayable",
      "type": "function"
    },
    {
      "inputs": [
        {
          "internalType": "uint256",
          "name": "_optionId",
          "type": "uint256"
        },
        {
          "internalType": "address",
          "name": "_toAddress",
          "type": "address"
        },
        {
          "internalType": "uint256",
          "name": "_amount",
          "type": "uint256"
        }
      ],
      "name": "unpack",
      "outputs": [],
      "stateMutability": "nonpayable",
      "type": "function"
    },
    {
      "inputs": [
        {
          "internalType": "address",
          "name": "_to",
          "type": "address"
        },
        {
          "internalType": "uint256",
          "name": "_optionId",
          "type": "uint256"
        },
        {
          "internalType": "uint256",
          "name": "_amount",
          "type": "uint256"
        },
        {
          "internalType": "bytes",
          "name": "_data",
          "type": "bytes"
        }
      ],
      "name": "mint",
      "outputs": [],
      "stateMutability": "nonpayable",
      "type": "function"
    }
  ],
  "bytecode": "0x60806040526003805460ff191690553480156200001b57600080fd5b5060405162004161380380620041618339810160408190526200003e916200043b565b6040518060600160405280602381526020016200413e602391396040518060400160405280600881526020016713d4d0d05313d3d560c21b8152506040518060200160405280600081525083816200009c81620001a960201b60201c565b50620000b1620000ab620001c2565b620001de565b8351620000c690600b90602087019062000395565b508251620000dc90600c90602086019062000395565b50600780546001600160a01b0319166001600160a01b038316179055600b80546200019891906200010d906200046d565b80601f01602080910402602001604051908101604052809291908181526020018280546200013b906200046d565b80156200018c5780601f1062000160576101008083540402835291602001916200018c565b820191906000526020600020905b8154815290600101906020018083116200016e57829003601f168201915b50506200023092505050565b50506001600d5550620004aa915050565b8051620001be90600290602084019062000395565b5050565b6000620001d96200029460201b620016a31760201c565b905090565b600680546001600160a01b038381166001600160a01b0319831681179093556040519116919082907f8be0079c531659141344cd1fd0a4f28419497f9722a3daafe3b4186f6b6457e090600090a35050565b60035460ff1615620002795760405162461bcd60e51b815260206004820152600e60248201526d185b1c9958591e481a5b9a5d195960921b604482015260640160405180910390fd5b6200028481620002f3565b506003805460ff19166001179055565b600033301415620002ed57600080368080601f0160208091040260200160405190810160405280939291908181526020018383808284376000920191909152505050503601516001600160a01b03169150620002f09050565b50335b90565b6040518060800160405280604f8152602001620040ef604f9139805160209182012082519282019290922060408051808201825260018152603160f81b90840152805180840194909452838101919091527fc89efdaa54c0f20c7adf612882df0950f5a951637e0307cdcb4c672f298b8bc660608401523060808401524660a0808501919091528151808503909101815260c090930190528151910120600455565b828054620003a3906200046d565b90600052602060002090601f016020900481019282620003c7576000855562000412565b82601f10620003e257805160ff191683800117855562000412565b8280016001018555821562000412579182015b8281111562000412578251825591602001919060010190620003f5565b506200042092915062000424565b5090565b5b8082111562000420576000815560010162000425565b6000602082840312156200044e57600080fd5b81516001600160a01b03811681146200046657600080fd5b9392505050565b600181811c908216806200048257607f821691505b60208210811415620004a457634e487b7160e01b600052602260045260246000fd5b50919050565b613c3580620004ba6000396000f3fe6080604052600436106101725760003560e01c8062fdd58e1461017757806301ffc9a7146101aa57806302fe5305146101da57806306fdde03146101fc5780630c53c51c1461021e5780630e89341c146102315780630f7e59701461025157806320379ee51461027e57806322629f9e146102935780632693ebf2146102b35780632d0335ab146102e05780632eb2c2d6146103165780633408e4701461033657806336a100d5146103495780633adf80b4146103695780634e1273f4146103895780634f558e79146103b657806360ea2797146103d6578063715018a6146103f6578063731133e91461040b5780638da5cb5b1461042b57806395d89b411461044d578063a22cb46514610462578063b48ab8b614610482578063bd85b039146104a2578063cd53d08e146104cf578063d2a6b51a14610505578063e985e9c514610525578063f0fee98c14610545578063f242432a14610565578063f2fde38b14610585578063f7188246146105a5575b600080fd5b34801561018357600080fd5b50610197610192366004612c95565b6105c5565b6040519081526020015b60405180910390f35b3480156101b657600080fd5b506101ca6101c5366004612cd7565b61065f565b60405190151581526020016101a1565b3480156101e657600080fd5b506101fa6101f5366004612da9565b6106af565b005b34801561020857600080fd5b506102116106fa565b6040516101a19190612e35565b61021161022c366004612e48565b610788565b34801561023d57600080fd5b5061021161024c366004612ec5565b610971565b34801561025d57600080fd5b50610211604051806040016040528060018152602001603160f81b81525081565b34801561028a57600080fd5b50600454610197565b34801561029f57600080fd5b506101fa6102ae366004612ede565b610b2f565b3480156102bf57600080fd5b506101976102ce366004612ec5565b60096020526000908152604090205481565b3480156102ec57600080fd5b506101976102fb366004612f19565b6001600160a01b031660009081526005602052604090205490565b34801561032257600080fd5b506101fa610331366004612fca565b610bfc565b34801561034257600080fd5b5046610197565b34801561035557600080fd5b50610197610364366004613077565b610ca5565b34801561037557600080fd5b506101fa6103843660046130d0565b610dee565b34801561039557600080fd5b506103a96103a4366004613116565b610e8d565b6040516101a19190613213565b3480156103c257600080fd5b506101ca6103d1366004612ec5565b610fb6565b3480156103e257600080fd5b506101fa6103f136600461329d565b610fc1565b34801561040257600080fd5b506101fa611040565b34801561041757600080fd5b506101fa610426366004613313565b61108b565b34801561043757600080fd5b506104406111a0565b6040516101a19190613369565b34801561045957600080fd5b506102116111af565b34801561046e57600080fd5b506101fa61047d36600461337d565b6111bc565b34801561048e57600080fd5b506101fa61049d3660046133bb565b6111d2565b3480156104ae57600080fd5b506101976104bd366004612ec5565b60009081526009602052604090205490565b3480156104db57600080fd5b506104406104ea366004612ec5565b6008602052600090815260409020546001600160a01b031681565b34801561051157600080fd5b506101fa610520366004613449565b611302565b34801561053157600080fd5b506101ca61054036600461348e565b6113b9565b34801561055157600080fd5b506101fa6105603660046134bc565b61147e565b34801561057157600080fd5b506101fa6105803660046134f4565b6114ae565b34801561059157600080fd5b506101fa6105a0366004612f19565b611547565b3480156105b157600080fd5b506101fa6105c036600461355c565b6115f4565b60006001600160a01b0383166106365760405162461bcd60e51b815260206004820152602b60248201527f455243313135353a2062616c616e636520717565727920666f7220746865207a60448201526a65726f206164647265737360a81b60648201526084015b60405180910390fd5b506000818152602081815260408083206001600160a01b03861684529091529020545b92915050565b60006001600160e01b03198216636cdb3d1360e11b148061069057506001600160e01b031982166303a24d0760e21b145b8061065957506301ffc9a760e01b6001600160e01b0319831614610659565b6106b7611700565b6001600160a01b03166106c86111a0565b6001600160a01b0316146106ee5760405162461bcd60e51b815260040161062d9061358c565b6106f78161170f565b50565b600b8054610707906135c1565b80601f0160208091040260200160405190810160405280929190818152602001828054610733906135c1565b80156107805780601f1061075557610100808354040283529160200191610780565b820191906000526020600020905b81548152906001019060200180831161076357829003601f168201915b505050505081565b60408051606081810183526001600160a01b038816600081815260056020908152908590205484528301529181018690526107c68782878787611722565b61081c5760405162461bcd60e51b815260206004820152602160248201527f5369676e657220616e64207369676e617475726520646f206e6f74206d6174636044820152600d60fb1b606482015260840161062d565b6001600160a01b038716600090815260056020526040902054610840906001611812565b6001600160a01b0388166000908152600560205260409081902091909155517f5845892132946850460bff5a0083f71031bc5bf9aadcd40f1de79423eac9b10b9061089090899033908a906135f6565b60405180910390a1600080306001600160a01b0316888a6040516020016108b892919061362b565b60408051601f19818403018152908290526108d29161365d565b6000604051808303816000865af19150503d806000811461090f576040519150601f19603f3d011682016040523d82523d6000602084013e610914565b606091505b5091509150816109655760405162461bcd60e51b815260206004820152601c60248201527b119d5b98dd1a5bdb8818d85b1b081b9bdd081cdd58d8d95cdcd99d5b60221b604482015260640161062d565b98975050505050505050565b606061097c8261181e565b6109d75760405162461bcd60e51b815260206004820152602660248201527f455243313135355472616461626c65237572693a204e4f4e4558495354454e546044820152652faa27a5a2a760d11b606482015260840161062d565b6000828152600a6020526040812080546109f0906135c1565b80601f0160208091040260200160405190810160405280929190818152602001828054610a1c906135c1565b8015610a695780601f10610a3e57610100808354040283529160200191610a69565b820191906000526020600020905b815481529060010190602001808311610a4c57829003601f168201915b50505050509050600081511115610b19576000838152600a602052604090208054610a93906135c1565b80601f0160208091040260200160405190810160405280929190818152602001828054610abf906135c1565b8015610b0c5780601f10610ae157610100808354040283529160200191610b0c565b820191906000526020600020905b815481529060010190602001808311610aef57829003601f168201915b5050505050915050919050565b610b228361183b565b9392505050565b50919050565b610b37611700565b6001600160a01b0316610b486111a0565b6001600160a01b031614610b6e5760405162461bcd60e51b815260040161062d9061358c565b604051636306b42b60e01b8152600e60048201526001600160a01b038516602482015260448101849052606481018390526084810182905273__LootBoxRandomness_____________________90636306b42b9060a4015b60006040518083038186803b158015610bde57600080fd5b505af4158015610bf2573d6000803e3d6000fd5b5050505050505050565b610c04611700565b6001600160a01b0316856001600160a01b03161480610c2a5750610c2a85610540611700565b610c915760405162461bcd60e51b815260206004820152603260248201527f455243313135353a207472616e736665722063616c6c6572206973206e6f74206044820152711bdddb995c881b9bdc88185c1c1c9bdd995960721b606482015260840161062d565b610c9e85858585856118cf565b5050505050565b6000610caf611700565b6001600160a01b0316610cc06111a0565b6001600160a01b031614610ce65760405162461bcd60e51b815260040161062d9061358c565b610cef8561181e565b15610d375760405162461bcd60e51b8152602060048201526018602482015277746f6b656e205f696420616c72656164792065786973747360401b604482015260640161062d565b610d3f611700565b600086815260086020526040902080546001600160a01b0319166001600160a01b0392909216919091179055825115610dcb576000858152600a602090815260409091208451610d9192860190612be7565b50847f6bb7ff708619ba0610cba295a58592e0451dee2622938c8755667688daf3529b84604051610dc29190612e35565b60405180910390a25b610dd786868685611a6e565b505050600082815260096020526040902055919050565b81610df7611700565b6000828152600860205260409020546001600160a01b03908116911614610e305760405162461bcd60e51b815260040161062d90613679565b6000838152600a602090815260409091208351610e4f92850190612be7565b50827f6bb7ff708619ba0610cba295a58592e0451dee2622938c8755667688daf3529b83604051610e809190612e35565b60405180910390a2505050565b60608151835114610ef25760405162461bcd60e51b815260206004820152602960248201527f455243313135353a206163636f756e747320616e6420696473206c656e677468604482015268040dad2e6dac2e8c6d60bb1b606482015260840161062d565b600083516001600160401b03811115610f0d57610f0d612cf4565b604051908082528060200260200182016040528015610f36578160200160208202803683370190505b50905060005b8451811015610fae57610f81858281518110610f5a57610f5a6136ca565b6020026020010151858381518110610f7457610f746136ca565b60200260200101516105c5565b828281518110610f9357610f936136ca565b6020908102919091010152610fa7816136f6565b9050610f3c565b509392505050565b60006106598261181e565b610fc9611700565b6001600160a01b0316610fda6111a0565b6001600160a01b0316146110005760405162461bcd60e51b815260040161062d9061358c565b60405163b13d6c3560e01b815273__LootBoxRandomness_____________________9063b13d6c3590610bc690600e908890889088908890600401613745565b611048611700565b6001600160a01b03166110596111a0565b6001600160a01b03161461107f5760405162461bcd60e51b815260040161062d9061358c565b6110896000611aa2565b565b6002600d5414156110de5760405162461bcd60e51b815260206004820152601f60248201527f5265656e7472616e637947756172643a207265656e7472616e742063616c6c00604482015260640161062d565b6002600d556110f36110ee611700565b611af4565b61113e5760405162461bcd60e51b815260206004820152601c60248201527b4c6f6f74626f783a206f776e6572206f722070726f7879206f6e6c7960201b604482015260640161062d565b600f5483106111895760405162461bcd60e51b81526020600482015260176024820152762637b7ba3137bc1d1024b73b30b634b21027b83a34b7b760491b604482015260640161062d565b61119584848484611a6e565b50506001600d555050565b6006546001600160a01b031690565b600c8054610707906135c1565b6111ce6111c7611700565b8383611baf565b5050565b60005b83518110156112ef5760008482815181106111f2576111f26136ca565b60200260200101519050611204611700565b6000828152600860205260409020546001600160a01b039081169116146112855760405162461bcd60e51b815260206004820152602f60248201527f455243313135355472616461626c652362617463684d696e743a204f4e4c595f60448201526e10d491505513d497d0531313d5d151608a1b606482015260840161062d565b6000848381518110611299576112996136ca565b602002602001015190506112c981600960008581526020019081526020016000205461181290919063ffffffff16565b6000928352600960205260409092209190915550806112e7816136f6565b9150506111d5565b506112fc84848484611c90565b50505050565b6001600160a01b03821661136d5760405162461bcd60e51b815260206004820152602c60248201527f455243313135355472616461626c652373657443726561746f723a20494e564160448201526b2624a22fa0a2222922a9a99760a11b606482015260840161062d565b60005b81518110156113b457600082828151811061138d5761138d6136ca565b602002602001015190506113a18482611de6565b50806113ac816136f6565b915050611370565b505050565b60075460405163c455279160e01b81526000916001600160a01b039081169190841690829063c4552791906113f2908890600401613369565b602060405180830381865afa15801561140f573d6000803e3d6000fd5b505050506040513d601f19601f82011682018060405250810190611433919061377c565b6001600160a01b0316141561144c576001915050610659565b6001600160a01b0380851660009081526001602090815260408083209387168352929052205460ff165b949350505050565b611490611489611700565b8483611e57565b6113b4600e8484846040518060200160405280600081525030611fca565b6114b6611700565b6001600160a01b0316856001600160a01b031614806114dc57506114dc85610540611700565b61153a5760405162461bcd60e51b815260206004820152602960248201527f455243313135353a2063616c6c6572206973206e6f74206f776e6572206e6f7260448201526808185c1c1c9bdd995960ba1b606482015260840161062d565b610c9e85858585856122e3565b61154f611700565b6001600160a01b03166115606111a0565b6001600160a01b0316146115865760405162461bcd60e51b815260040161062d9061358c565b6001600160a01b0381166115eb5760405162461bcd60e51b815260206004820152602660248201527f4f776e61626c653a206e6577206f776e657220697320746865207a65726f206160448201526564647265737360d01b606482015260840161062d565b6106f781611aa2565b6115fc611700565b6001600160a01b031661160d6111a0565b6001600160a01b0316146116335760405162461bcd60e51b815260040161062d9061358c565b60405163195f3e8960e21b815273__LootBoxRandomness_____________________9063657cfa249061166f90600e9086908690600401613799565b60006040518083038186803b15801561168757600080fd5b505af415801561169b573d6000803e3d6000fd5b505050505050565b6000333014156116fa57600080368080601f0160208091040260200160405190810160405280939291908181526020018383808284376000920191909152505050503601516001600160a01b031691506116fd9050565b50335b90565b600061170a6116a3565b905090565b80516111ce906002906020840190612be7565b60006001600160a01b0386166117885760405162461bcd60e51b815260206004820152602560248201527f4e61746976654d6574615472616e73616374696f6e3a20494e56414c49445f5360448201526424a3a722a960d91b606482015260840161062d565b600161179b61179687612402565b61247f565b6040805160008152602081018083529290925260ff851690820152606081018690526080810185905260a0016020604051602081039080840390855afa1580156117e9573d6000803e3d6000fd5b505050602060405103516001600160a01b0316866001600160a01b031614905095945050505050565b6000610b2282846137ee565b6000908152600860205260409020546001600160a01b0316151590565b60606002805461184a906135c1565b80601f0160208091040260200160405190810160405280929190818152602001828054611876906135c1565b80156118c35780601f10611898576101008083540402835291602001916118c3565b820191906000526020600020905b8154815290600101906020018083116118a657829003601f168201915b50505050509050919050565b81518351146118f05760405162461bcd60e51b815260040161062d90613806565b6001600160a01b0384166119165760405162461bcd60e51b815260040161062d9061384e565b6000611920611700565b905060005b8451811015611a08576000858281518110611942576119426136ca565b602002602001015190506000858381518110611960576119606136ca565b602090810291909101810151600084815280835260408082206001600160a01b038e1683529093529190912054909150818110156119b05760405162461bcd60e51b815260040161062d90613893565b6000838152602081815260408083206001600160a01b038e8116855292528083208585039055908b168252812080548492906119ed9084906137ee565b9250508190555050505080611a01906136f6565b9050611925565b50846001600160a01b0316866001600160a01b0316826001600160a01b03167f4a39dc06d4c0dbc64b70af90fd698a233a518aa5d07e595d983b8c0526c8f7fb8787604051611a589291906138dd565b60405180910390a461169b8187878787876124af565b600083815260096020526040902054611a879083611812565b6000848152600960205260409020556112fc8484848461260b565b600680546001600160a01b038381166001600160a01b0319831681179093556040519116919082907f8be0079c531659141344cd1fd0a4f28419497f9722a3daafe3b4186f6b6457e090600090a35050565b6007546000906001600160a01b03908116908316611b106111a0565b6001600160a01b03161480610b225750826001600160a01b0316816001600160a01b031663c4552791611b416111a0565b6040518263ffffffff1660e01b8152600401611b5d9190613369565b602060405180830381865afa158015611b7a573d6000803e3d6000fd5b505050506040513d601f19601f82011682018060405250810190611b9e919061377c565b6001600160a01b0316149392505050565b816001600160a01b0316836001600160a01b03161415611c235760405162461bcd60e51b815260206004820152602960248201527f455243313135353a2073657474696e6720617070726f76616c20737461747573604482015268103337b91039b2b63360b91b606482015260840161062d565b6001600160a01b03838116600081815260016020908152604080832094871680845294825291829020805460ff191686151590811790915591519182527f17307eab39ab6107e8899845ad3d59bd9653f200f220920489ca2b5937696c31910160405180910390a3505050565b6001600160a01b038416611cb65760405162461bcd60e51b815260040161062d90613902565b8151835114611cd75760405162461bcd60e51b815260040161062d90613806565b6000611ce1611700565b905060005b8451811015611d7e57838181518110611d0157611d016136ca565b6020026020010151600080878481518110611d1e57611d1e6136ca565b602002602001015181526020019081526020016000206000886001600160a01b03166001600160a01b031681526020019081526020016000206000828254611d6691906137ee565b90915550819050611d76816136f6565b915050611ce6565b50846001600160a01b031660006001600160a01b0316826001600160a01b03167f4a39dc06d4c0dbc64b70af90fd698a233a518aa5d07e595d983b8c0526c8f7fb8787604051611dcf9291906138dd565b60405180910390a4610c9e816000878787876124af565b80611def611700565b6000828152600860205260409020546001600160a01b03908116911614611e285760405162461bcd60e51b815260040161062d90613679565b50600090815260086020526040902080546001600160a01b0319166001600160a01b0392909216919091179055565b6001600160a01b038316611eb95760405162461bcd60e51b815260206004820152602360248201527f455243313135353a206275726e2066726f6d20746865207a65726f206164647260448201526265737360e81b606482015260840161062d565b6000611ec3611700565b9050611ef481856000611ed5876126cb565b611ede876126cb565b5050604080516020810190915260009052505050565b6000838152602081815260408083206001600160a01b038816845290915290205482811015611f715760405162461bcd60e51b8152602060048201526024808201527f455243313135353a206275726e20616d6f756e7420657863656564732062616c604482015263616e636560e01b606482015260840161062d565b6000848152602081815260408083206001600160a01b0389811680865291845282852088870390558251898152938401889052909290861691600080516020613b9d833981519152910160405180910390a45050505050565b856001015485106120145760405162461bcd60e51b81526020600482015260146024820152735f6f7074696f6e206f7574206f662072616e676560601b604482015260640161062d565b6000858152600387016020908152604080832081516080810183528154815260018201805484518187028101870190955280855291949293858401939092908301828280156120aa57602002820191906000526020600020906000905b82829054906101000a900461ffff1661ffff16815260200190600201906020826001010492830192600103820291508084116120715790505b5050509183525050600282015460ff161515602080830191909152600383018054604080518285028101850182528281529401939283018282801561213657602002820191906000526020600020906000905b82829054906101000a900461ffff1661ffff16815260200190600201906020826001010492830192600103820291508084116120fd5790505b505050505081525050905060008160000151116121a95760405162461bcd60e51b815260206004820152602b60248201527f4c6f6f74426f7852616e646f6d6e657373235f6d696e743a204f5054494f4e5f60448201526a1393d517d0531313d5d15160aa1b606482015260840161062d565b6000805b858110156122925760008360400151156122305760005b84606001515181101561222e576000856060015182815181106121e9576121e96136ca565b602002602001015161ffff169050600081111561221b5761220d8c838c848b612716565b5061221881846137ee565b92505b5080612226816136f6565b9150506121c4565b505b835181101561227257600060019050600061224f8c87602001516127db565b905061225e8c828c858b612716565b5061226982846137ee565b92505050612230565b61227c81846137ee565b925050808061228a906136f6565b9150506121ad565b5060408051868152602081018390526001600160a01b0388169189917fd8c55eae4f6ffa3dfbfba23f50cb5e242e86d347736fe1b910ad11bff616d839910160405180910390a35050505050505050565b6001600160a01b0384166123095760405162461bcd60e51b815260040161062d9061384e565b6000612313611700565b905061232d818787612324886126cb565b610c9e886126cb565b6000848152602081815260408083206001600160a01b038a1684529091529020548381101561236e5760405162461bcd60e51b815260040161062d90613893565b6000858152602081815260408083206001600160a01b038b81168552925280832087850390559088168252812080548692906123ab9084906137ee565b909155505060408051868152602081018690526001600160a01b03808916928a82169291861691600080516020613b9d833981519152910160405180910390a46123f9828888888888612870565b50505050505050565b6000604051806080016040528060438152602001613bbd6043913980516020918201208351848301516040808701518051908601209051612462950193845260208401929092526001600160a01b03166040830152606082015260800190565b604051602081830303815290604052805190602001209050919050565b600061248a60045490565b60405161190160f01b6020820152602281019190915260428101839052606201612462565b6001600160a01b0384163b1561169b5760405163bc197c8160e01b81526001600160a01b0385169063bc197c81906124f39089908990889088908890600401613943565b6020604051808303816000875af192505050801561252e575060408051601f3d908101601f1916820190925261252b91810190613995565b60015b6125db5761253a6139b2565b806308c379a01415612574575061254f6139cd565b8061255a5750612576565b8060405162461bcd60e51b815260040161062d9190612e35565b505b60405162461bcd60e51b815260206004820152603460248201527f455243313135353a207472616e7366657220746f206e6f6e20455243313135356044820152732932b1b2b4bb32b91034b6b83632b6b2b73a32b960611b606482015260840161062d565b6001600160e01b0319811663bc197c8160e01b146123f95760405162461bcd60e51b815260040161062d90613a56565b6001600160a01b0384166126315760405162461bcd60e51b815260040161062d90613902565b600061263b611700565b905061264d81600087612324886126cb565b6000848152602081815260408083206001600160a01b03891684529091528120805485929061267d9084906137ee565b909155505060408051858152602081018590526001600160a01b038088169260009291851691600080516020613b9d833981519152910160405180910390a4610c9e81600087878787612870565b60408051600180825281830190925260609160009190602080830190803683370190505090508281600081518110612705576127056136ca565b602090810291909101015292915050565b60008560020154851061273b5760405162461bcd60e51b815260040161062d90613a9e565b85546001600160a01b031660006127548888878761292b565b6040516363bdb36160e11b8152600481018290526001600160a01b0388811660248301526044820188905260806064830152600060848301529192509083169063c77b66c29060a401600060405180830381600087803b1580156127b757600080fd5b505af11580156127cb573d6000803e3d6000fd5b50929a9950505050505050505050565b6000806127f36127106127ed86612b7c565b90612bdb565b90506000600184516128059190613acb565b90505b8015612865576000848281518110612822576128226136ca565b602002602001015190508061ffff168361ffff161015612846575091506106599050565b6128508184613ae2565b9250508061285d81613b05565b915050612808565b506000949350505050565b6001600160a01b0384163b1561169b5760405163f23a6e6160e01b81526001600160a01b0385169063f23a6e61906128b49089908990889088908890600401613b1c565b6020604051808303816000875af19250505080156128ef575060408051601f3d908101601f191682019092526128ec91810190613995565b60015b6128fb5761253a6139b2565b6001600160e01b0319811663f23a6e6160e01b146123f95760405162461bcd60e51b815260040161062d90613a56565b6000846002015484106129505760405162461bcd60e51b815260040161062d90613a9e565b60008481526004860160209081526040808320805482518185028101850190935280835291929091908301828280156129a857602002820191906000526020600020905b815481526020019060010190808311612994575b5050505050905060008151116129fc5760405162461bcd60e51b8152602060048201526019602482015278139bc81d1bdad95b881a591cc8199bdc8817d8db185cdcd259603a1b604482015260640161062d565b6000612a0c82516127ed89612b7c565b87549091506001600160a01b0316815b8351612a2890846137ee565b811015612af257600084855183612a3f9190613b61565b81518110612a4f57612a4f6136ca565b6020908102919091010151604051627eeac760e11b81526001600160a01b03898116600483015260248201839052919250899185169062fdd58e90604401602060405180830381865afa158015612aaa573d6000803e3d6000fd5b505050506040513d601f19601f82011682018060405250810190612ace9190613b83565b10612adf5794506114769350505050565b5080612aea816136f6565b915050612a1c565b5060405162461bcd60e51b815260206004820152605260248201527f4c6f6f74426f7852616e646f6d6e657373235f7069636b52616e646f6d41766160448201527f696c61626c65546f6b656e4964466f72436c6173733a204e4f545f454e4f5547606482015271485f544f4b454e535f464f525f434c41535360701b608482015260a40161062d565b600080612b8a600143613acb565b600584015460408051924060208401526001600160601b03193360601b1690830152605482015260740160408051601f19818403018152919052805160209091012060059093018390555090919050565b6000610b228284613b61565b828054612bf3906135c1565b90600052602060002090601f016020900481019282612c155760008555612c5b565b82601f10612c2e57805160ff1916838001178555612c5b565b82800160010185558215612c5b579182015b82811115612c5b578251825591602001919060010190612c40565b50612c67929150612c6b565b5090565b5b80821115612c675760008155600101612c6c565b6001600160a01b03811681146106f757600080fd5b60008060408385031215612ca857600080fd5b8235612cb381612c80565b946020939093013593505050565b6001600160e01b0319811681146106f757600080fd5b600060208284031215612ce957600080fd5b8135610b2281612cc1565b634e487b7160e01b600052604160045260246000fd5b601f8201601f191681016001600160401b0381118282101715612d2f57612d2f612cf4565b6040525050565b600082601f830112612d4757600080fd5b81356001600160401b03811115612d6057612d60612cf4565b604051612d77601f8301601f191660200182612d0a565b818152846020838601011115612d8c57600080fd5b816020850160208301376000918101602001919091529392505050565b600060208284031215612dbb57600080fd5b81356001600160401b03811115612dd157600080fd5b61147684828501612d36565b60005b83811015612df8578181015183820152602001612de0565b838111156112fc5750506000910152565b60008151808452612e21816020860160208601612ddd565b601f01601f19169290920160200192915050565b602081526000610b226020830184612e09565b600080600080600060a08688031215612e6057600080fd5b8535612e6b81612c80565b945060208601356001600160401b03811115612e8657600080fd5b612e9288828901612d36565b9450506040860135925060608601359150608086013560ff81168114612eb757600080fd5b809150509295509295909350565b600060208284031215612ed757600080fd5b5035919050565b60008060008060808587031215612ef457600080fd5b8435612eff81612c80565b966020860135965060408601359560600135945092505050565b600060208284031215612f2b57600080fd5b8135610b2281612c80565b60006001600160401b03821115612f4f57612f4f612cf4565b5060051b60200190565b600082601f830112612f6a57600080fd5b81356020612f7782612f36565b604051612f848282612d0a565b83815260059390931b8501820192828101915086841115612fa457600080fd5b8286015b84811015612fbf5780358352918301918301612fa8565b509695505050505050565b600080600080600060a08688031215612fe257600080fd5b8535612fed81612c80565b94506020860135612ffd81612c80565b935060408601356001600160401b038082111561301957600080fd5b61302589838a01612f59565b9450606088013591508082111561303b57600080fd5b61304789838a01612f59565b9350608088013591508082111561305d57600080fd5b5061306a88828901612d36565b9150509295509295909350565b600080600080600060a0868803121561308f57600080fd5b853561309a81612c80565b9450602086013593506040860135925060608601356001600160401b03808211156130c457600080fd5b61304789838a01612d36565b600080604083850312156130e357600080fd5b8235915060208301356001600160401b0381111561310057600080fd5b61310c85828601612d36565b9150509250929050565b6000806040838503121561312957600080fd5b82356001600160401b038082111561314057600080fd5b818501915085601f83011261315457600080fd5b8135602061316182612f36565b60405161316e8282612d0a565b83815260059390931b850182019282810191508984111561318e57600080fd5b948201945b838610156131b55785356131a681612c80565b82529482019490820190613193565b965050860135925050808211156131cb57600080fd5b5061310c85828601612f59565b600081518084526020808501945080840160005b83811015613208578151875295820195908201906001016131ec565b509495945050505050565b602081526000610b2260208301846131d8565b600082601f83011261323757600080fd5b8135602061324482612f36565b6040516132518282612d0a565b83815260059390931b850182019282810191508684111561327157600080fd5b8286015b84811015612fbf57803561ffff811681146132905760008081fd5b8352918301918301613275565b600080600080608085870312156132b357600080fd5b843593506020850135925060408501356001600160401b03808211156132d857600080fd5b6132e488838901613226565b935060608701359150808211156132fa57600080fd5b5061330787828801613226565b91505092959194509250565b6000806000806080858703121561332957600080fd5b843561333481612c80565b9350602085013592506040850135915060608501356001600160401b0381111561335d57600080fd5b61330787828801612d36565b6001600160a01b0391909116815260200190565b6000806040838503121561339057600080fd5b823561339b81612c80565b9150602083013580151581146133b057600080fd5b809150509250929050565b600080600080608085870312156133d157600080fd5b84356133dc81612c80565b935060208501356001600160401b03808211156133f857600080fd5b61340488838901612f59565b9450604087013591508082111561341a57600080fd5b61342688838901612f59565b9350606087013591508082111561343c57600080fd5b5061330787828801612d36565b6000806040838503121561345c57600080fd5b823561346781612c80565b915060208301356001600160401b0381111561348257600080fd5b61310c85828601612f59565b600080604083850312156134a157600080fd5b82356134ac81612c80565b915060208301356133b081612c80565b6000806000606084860312156134d157600080fd5b8335925060208401356134e381612c80565b929592945050506040919091013590565b600080600080600060a0868803121561350c57600080fd5b853561351781612c80565b9450602086013561352781612c80565b9350604086013592506060860135915060808601356001600160401b0381111561355057600080fd5b61306a88828901612d36565b6000806040838503121561356f57600080fd5b8235915060208301356001600160401b0381111561348257600080fd5b6020808252818101527f4f776e61626c653a2063616c6c6572206973206e6f7420746865206f776e6572604082015260600190565b600181811c908216806135d557607f821691505b60208210811415610b2957634e487b7160e01b600052602260045260246000fd5b6001600160a01b0384811682528316602082015260606040820181905260009061362290830184612e09565b95945050505050565b6000835161363d818460208801612ddd565b60609390931b6001600160601b0319169190920190815260140192915050565b6000825161366f818460208701612ddd565b9190910192915050565b60208082526031908201527f455243313135355472616461626c652363726561746f724f6e6c793a204f4e4c6040820152701657d0d491505513d497d0531313d5d151607a1b606082015260800190565b634e487b7160e01b600052603260045260246000fd5b634e487b7160e01b600052601160045260246000fd5b600060001982141561370a5761370a6136e0565b5060010190565b600081518084526020808501945080840160005b8381101561320857815161ffff1687529582019590820190600101613725565b85815284602082015283604082015260a06060820152600061376a60a0830185613711565b82810360808401526109658185613711565b60006020828403121561378e57600080fd5b8151610b2281612c80565b6000606082018583526020858185015260606040850152818551808452608086019150828701935060005b818110156137e0578451835293830193918301916001016137c4565b509098975050505050505050565b60008219821115613801576138016136e0565b500190565b60208082526028908201527f455243313135353a2069647320616e6420616d6f756e7473206c656e677468206040820152670dad2e6dac2e8c6d60c31b606082015260800190565b60208082526025908201527f455243313135353a207472616e7366657220746f20746865207a65726f206164604082015264647265737360d81b606082015260800190565b6020808252602a908201527f455243313135353a20696e73756666696369656e742062616c616e636520666f60408201526939103a3930b739b332b960b11b606082015260800190565b6040815260006138f060408301856131d8565b828103602084015261362281856131d8565b60208082526021908201527f455243313135353a206d696e7420746f20746865207a65726f206164647265736040820152607360f81b606082015260800190565b6001600160a01b0386811682528516602082015260a06040820181905260009061396f908301866131d8565b828103606084015261398181866131d8565b905082810360808401526109658185612e09565b6000602082840312156139a757600080fd5b8151610b2281612cc1565b600060033d11156116fd5760046000803e5060005160e01c90565b600060443d10156139db5790565b6040516003193d81016004833e81513d6001600160401b038160248401118184111715613a0a57505050505090565b8285019150815181811115613a225750505050505090565b843d8701016020828501011115613a3c5750505050505090565b613a4b60208286010187612d0a565b509095945050505050565b60208082526028908201527f455243313135353a204552433131353552656365697665722072656a656374656040820152676420746f6b656e7360c01b606082015260800190565b6020808252601390820152725f636c617373206f7574206f662072616e676560681b604082015260600190565b600082821015613add57613add6136e0565b500390565b600061ffff83811690831681811015613afd57613afd6136e0565b039392505050565b600081613b1457613b146136e0565b506000190190565b6001600160a01b03868116825285166020820152604081018490526060810183905260a060808201819052600090613b5690830184612e09565b979650505050505050565b600082613b7e57634e487b7160e01b600052601260045260246000fd5b500690565b600060208284031215613b9557600080fd5b505191905056fec3d58168c5ae7397731d063d5bbf3d657854427343f4c083240f7aacaa2d0f624d6574615472616e73616374696f6e2875696e74323536206e6f6e63652c616464726573732066726f6d2c62797465732066756e6374696f6e5369676e617475726529a2646970667358221220740f1fddc49f0bc17d77e78e9988f270e3fa9b016544bef98e66c3717fe267db64736f6c634300080b0033454950373132446f6d61696e28737472696e67206e616d652c737472696e672076657273696f6e2c6164647265737320766572696679696e67436f6e74726163742c627974657333322073616c74294f70656e536561204372656174757265204163636573736f7279204c6f6f7420426f78",
  "immutableReferences": {},
  "source": "// SPDX-License-Identifier: MIT\n\npragma solidity ^0.8.0;\n\nimport \"@openzeppelin/contracts/security/ReentrancyGuard.sol\";\nimport \"@openzeppelin/contracts/utils/math/SafeMath.sol\";\nimport \"./ERC1155Tradable.sol\";\nimport \"./LootBoxRandomness.sol\";\n\n\n/**\n * @title CreatureAccessoryLootBox\n * CreatureAccessoryLootBox - a randomized and openable lootbox of Creature\n * Accessories.\n */\ncontract CreatureAccessoryLootBox is ERC1155Tradable, ReentrancyGuard {\n  using LootBoxRandomness for LootBoxRandomness.LootBoxRandomnessState;\n  using SafeMath for uint256;\n\n  LootBoxRandomness.LootBoxRandomnessState state;\n\n  /**\n   * @dev Example constructor. Sets minimal configuration.\n   * @param _proxyRegistryAddress The address of the OpenSea/Wyvern proxy registry\n   *                              On Rinkeby: \"0xf57b2c51ded3a29e6891aba85459d600256cf317\"\n   *                              On mainnet: \"0xa5409ec958c83c3f309868babaca7c86dcb077c1\"\n   */\n  constructor(address _proxyRegistryAddress)\n  ERC1155Tradable(\n    \"OpenSea Creature Accessory Loot Box\",\n    \"OSCALOOT\",\n    \"\",\n    _proxyRegistryAddress\n  ) {}\n\n  function setState(\n    address _factoryAddress,\n    uint256 _numOptions,\n    uint256 _numClasses,\n    uint256 _seed\n  ) public onlyOwner {\n    LootBoxRandomness.initState(state, _factoryAddress, _numOptions, _numClasses, _seed);\n  }\n\n  function setTokenIdsForClass(\n    uint256 _classId,\n    uint256[] memory _tokenIds\n  ) public onlyOwner {\n      LootBoxRandomness.setTokenIdsForClass(state, _classId, _tokenIds);\n  }\n\n  function setOptionSettings(\n    uint256 _option,\n    uint256 _maxQuantityPerOpen,\n    uint16[] memory _classProbabilities,\n    uint16[] memory _guarantees\n  ) public onlyOwner {\n    LootBoxRandomness.setOptionSettings(state, _option, _maxQuantityPerOpen, _classProbabilities, _guarantees);\n  }\n\n  ///////\n  // MAIN FUNCTIONS\n  //////\n\n  function unpack(\n    uint256 _optionId,\n    address _toAddress,\n    uint256 _amount\n  ) external {\n    // This will underflow if _msgSender() does not own enough tokens.\n    _burn(_msgSender(), _optionId, _amount);\n    // Mint nfts contained by LootBox\n    LootBoxRandomness._mint(state, _optionId, _toAddress, _amount, \"\", address(this));\n  }\n\n  /**\n   *  @dev Mint the token/option id.\n   */\n  function mint(\n    address _to,\n    uint256 _optionId,\n    uint256 _amount,\n    bytes memory _data\n  ) override public nonReentrant {\n    require(_isOwnerOrProxy(_msgSender()), \"Lootbox: owner or proxy only\");\n    require(_optionId < state.numOptions, \"Lootbox: Invalid Option\");\n    // Option ID is used as a token ID here\n    _mint(_to, _optionId, _amount, _data);\n  }\n\n  /**\n   *  @dev track the number of tokens minted.\n   */\n  function _mint(\n    address _to,\n    uint256 _id,\n    uint256 _quantity,\n    bytes memory _data\n  ) override internal  {\n    tokenSupply[_id] = tokenSupply[_id].add(_quantity);\n    super._mint(_to, _id, _quantity, _data);\n  }\n\n  function _isOwnerOrProxy(\n    address _address\n  ) internal view returns (bool) {\n    ProxyRegistry proxyRegistry = ProxyRegistry(proxyRegistryAddress);\n    return owner() == _address || address(proxyRegistry.proxies(owner())) == _address;\n  }\n}\n",
  "sourcePath": "D:/work/Sam/opensea_nft/contracts/CreatureAccessoryLootBox.sol",
  "compiler": {
    "name": "solc",
    "version": "0.8.11+commit.d7f03943.Emscripten.clang"
  },
  "schemaVersion": "3.3.4",
  "updatedAt": "2022-02-07T03:32:28.316Z",
  "devdoc": {
    "kind": "dev",
    "methods": {
      "balanceOf(address,uint256)": {
        "details": "See {IERC1155-balanceOf}. Requirements: - `account` cannot be the zero address."
      },
      "balanceOfBatch(address[],uint256[])": {
        "details": "See {IERC1155-balanceOfBatch}. Requirements: - `accounts` and `ids` must have the same length."
      },
      "batchMint(address,uint256[],uint256[],bytes)": {
        "details": "Mint tokens for each id in _ids",
        "params": {
          "_data": "Data to pass if receiver is contract",
          "_ids": "Array of ids to mint",
          "_quantities": "Array of amounts of tokens to mint per id",
          "_to": "The address to mint tokens to"
        }
      },
      "constructor": {
        "details": "Example constructor. Sets minimal configuration.",
        "params": {
          "_proxyRegistryAddress": "The address of the OpenSea/Wyvern proxy registry                              On Rinkeby: \"0xf57b2c51ded3a29e6891aba85459d600256cf317\"                              On mainnet: \"0xa5409ec958c83c3f309868babaca7c86dcb077c1\""
        }
      },
      "create(address,uint256,uint256,string,bytes)": {
        "details": "Creates a new token type and assigns _initialSupply to an address NOTE: remove onlyOwner if you want third parties to create new tokens on       your contract (which may change your IDs) NOTE: The token id must be passed. This allows lazy creation of tokens or       creating NFTs by setting the id's high bits with the method       described in ERC1155 or to use ids representing values other than       successive small integers. If you wish to create ids as successive       small integers you can either subclass this class to count onchain       or maintain the offchain cache of identifiers recommended in       ERC1155 and calculate successive ids from that.",
        "params": {
          "_data": "Data to pass if receiver is contract",
          "_id": "The id of the token to create (must not currenty exist).",
          "_initialOwner": "address of the first owner of the token",
          "_initialSupply": "amount to supply the first owner",
          "_uri": "Optional URI for this token type"
        },
        "returns": {
          "_0": "The newly created token ID"
        }
      },
      "mint(address,uint256,uint256,bytes)": {
        "details": "Mint the token/option id."
      },
      "owner()": {
        "details": "Returns the address of the current owner."
      },
      "renounceOwnership()": {
        "details": "Leaves the contract without owner. It will not be possible to call `onlyOwner` functions anymore. Can only be called by the current owner. NOTE: Renouncing ownership will leave the contract without an owner, thereby removing any functionality that is only available to the owner."
      },
      "safeBatchTransferFrom(address,address,uint256[],uint256[],bytes)": {
        "details": "See {IERC1155-safeBatchTransferFrom}."
      },
      "safeTransferFrom(address,address,uint256,uint256,bytes)": {
        "details": "See {IERC1155-safeTransferFrom}."
      },
      "setApprovalForAll(address,bool)": {
        "details": "See {IERC1155-setApprovalForAll}."
      },
      "setCreator(address,uint256[])": {
        "details": "Change the creator address for given tokens",
        "params": {
          "_ids": "Array of Token IDs to change creator",
          "_to": "Address of the new creator"
        }
      },
      "setCustomURI(uint256,string)": {
        "details": "Will update the base URI for the token",
        "params": {
          "_newURI": "New URI for the token.",
          "_tokenId": "The token to update. _msgSender() must be its creator."
        }
      },
      "setURI(string)": {
        "details": "Sets a new URI for all token types, by relying on the token type ID substitution mechanism https://eips.ethereum.org/EIPS/eip-1155#metadata[defined in the EIP].",
        "params": {
          "_newURI": "New URI for all tokens"
        }
      },
      "supportsInterface(bytes4)": {
        "details": "See {IERC165-supportsInterface}."
      },
      "totalSupply(uint256)": {
        "details": "Returns the total quantity for a token ID",
        "params": {
          "_id": "uint256 ID of the token to query"
        },
        "returns": {
          "_0": "amount of token in existence"
        }
      },
      "transferOwnership(address)": {
        "details": "Transfers ownership of the contract to a new account (`newOwner`). Can only be called by the current owner."
      }
    },
    "title": "CreatureAccessoryLootBox CreatureAccessoryLootBox - a randomized and openable lootbox of Creature Accessories.",
    "version": 1
  },
  "userdoc": {
    "kind": "user",
    "methods": {
      "isApprovedForAll(address,address)": {
        "notice": "Override isApprovedForAll to whitelist user's OpenSea proxy accounts to enable gas-free listings."
      }
    },
    "version": 1
  }
}