{
  "contractName": "CreatureLootBox",
  "abi": [
    {
      "inputs": [
        {
          "internalType": "address",
          "name": "_proxyRegistryAddress",
          "type": "address"
        },
        {
          "internalType": "address",
          "name": "_factoryAddress",
          "type": "address"
        }
      ],
      "stateMutability": "nonpayable",
      "type": "constructor"
    },
    {
      "anonymous": false,
      "inputs": [
        {
          "indexed": true,
          "internalType": "address",
          "name": "owner",
          "type": "address"
        },
        {
          "indexed": true,
          "internalType": "address",
          "name": "approved",
          "type": "address"
        },
        {
          "indexed": true,
          "internalType": "uint256",
          "name": "tokenId",
          "type": "uint256"
        }
      ],
      "name": "Approval",
      "type": "event"
    },
    {
      "anonymous": false,
      "inputs": [
        {
          "indexed": true,
          "internalType": "address",
          "name": "owner",
          "type": "address"
        },
        {
          "indexed": true,
          "internalType": "address",
          "name": "operator",
          "type": "address"
        },
        {
          "indexed": false,
          "internalType": "bool",
          "name": "approved",
          "type": "bool"
        }
      ],
      "name": "ApprovalForAll",
      "type": "event"
    },
    {
      "anonymous": false,
      "inputs": [
        {
          "indexed": false,
          "internalType": "address",
          "name": "userAddress",
          "type": "address"
        },
        {
          "indexed": false,
          "internalType": "address payable",
          "name": "relayerAddress",
          "type": "address"
        },
        {
          "indexed": false,
          "internalType": "bytes",
          "name": "functionSignature",
          "type": "bytes"
        }
      ],
      "name": "MetaTransactionExecuted",
      "type": "event"
    },
    {
      "anonymous": false,
      "inputs": [
        {
          "indexed": true,
          "internalType": "address",
          "name": "previousOwner",
          "type": "address"
        },
        {
          "indexed": true,
          "internalType": "address",
          "name": "newOwner",
          "type": "address"
        }
      ],
      "name": "OwnershipTransferred",
      "type": "event"
    },
    {
      "anonymous": false,
      "inputs": [
        {
          "indexed": true,
          "internalType": "address",
          "name": "from",
          "type": "address"
        },
        {
          "indexed": true,
          "internalType": "address",
          "name": "to",
          "type": "address"
        },
        {
          "indexed": true,
          "internalType": "uint256",
          "name": "tokenId",
          "type": "uint256"
        }
      ],
      "name": "Transfer",
      "type": "event"
    },
    {
      "inputs": [],
      "name": "ERC712_VERSION",
      "outputs": [
        {
          "internalType": "string",
          "name": "",
          "type": "string"
        }
      ],
      "stateMutability": "view",
      "type": "function"
    },
    {
      "inputs": [
        {
          "internalType": "address",
          "name": "to",
          "type": "address"
        },
        {
          "internalType": "uint256",
          "name": "tokenId",
          "type": "uint256"
        }
      ],
      "name": "approve",
      "outputs": [],
      "stateMutability": "nonpayable",
      "type": "function"
    },
    {
      "inputs": [
        {
          "internalType": "address",
          "name": "owner",
          "type": "address"
        }
      ],
      "name": "balanceOf",
      "outputs": [
        {
          "internalType": "uint256",
          "name": "",
          "type": "uint256"
        }
      ],
      "stateMutability": "view",
      "type": "function"
    },
    {
      "inputs": [
        {
          "internalType": "address",
          "name": "userAddress",
          "type": "address"
        },
        {
          "internalType": "bytes",
          "name": "functionSignature",
          "type": "bytes"
        },
        {
          "internalType": "bytes32",
          "name": "sigR",
          "type": "bytes32"
        },
        {
          "internalType": "bytes32",
          "name": "sigS",
          "type": "bytes32"
        },
        {
          "internalType": "uint8",
          "name": "sigV",
          "type": "uint8"
        }
      ],
      "name": "executeMetaTransaction",
      "outputs": [
        {
          "internalType": "bytes",
          "name": "",
          "type": "bytes"
        }
      ],
      "stateMutability": "payable",
      "type": "function"
    },
    {
      "inputs": [
        {
          "internalType": "uint256",
          "name": "tokenId",
          "type": "uint256"
        }
      ],
      "name": "getApproved",
      "outputs": [
        {
          "internalType": "address",
          "name": "",
          "type": "address"
        }
      ],
      "stateMutability": "view",
      "type": "function"
    },
    {
      "inputs": [],
      "name": "getChainId",
      "outputs": [
        {
          "internalType": "uint256",
          "name": "",
          "type": "uint256"
        }
      ],
      "stateMutability": "view",
      "type": "function"
    },
    {
      "inputs": [],
      "name": "getDomainSeperator",
      "outputs": [
        {
          "internalType": "bytes32",
          "name": "",
          "type": "bytes32"
        }
      ],
      "stateMutability": "view",
      "type": "function"
    },
    {
      "inputs": [
        {
          "internalType": "address",
          "name": "user",
          "type": "address"
        }
      ],
      "name": "getNonce",
      "outputs": [
        {
          "internalType": "uint256",
          "name": "nonce",
          "type": "uint256"
        }
      ],
      "stateMutability": "view",
      "type": "function"
    },
    {
      "inputs": [
        {
          "internalType": "address",
          "name": "owner",
          "type": "address"
        },
        {
          "internalType": "address",
          "name": "operator",
          "type": "address"
        }
      ],
      "name": "isApprovedForAll",
      "outputs": [
        {
          "internalType": "bool",
          "name": "",
          "type": "bool"
        }
      ],
      "stateMutability": "view",
      "type": "function"
    },
    {
      "inputs": [
        {
          "internalType": "address",
          "name": "_to",
          "type": "address"
        }
      ],
      "name": "mintTo",
      "outputs": [],
      "stateMutability": "nonpayable",
      "type": "function"
    },
    {
      "inputs": [],
      "name": "name",
      "outputs": [
        {
          "internalType": "string",
          "name": "",
          "type": "string"
        }
      ],
      "stateMutability": "view",
      "type": "function"
    },
    {
      "inputs": [],
      "name": "owner",
      "outputs": [
        {
          "internalType": "address",
          "name": "",
          "type": "address"
        }
      ],
      "stateMutability": "view",
      "type": "function"
    },
    {
      "inputs": [
        {
          "internalType": "uint256",
          "name": "tokenId",
          "type": "uint256"
        }
      ],
      "name": "ownerOf",
      "outputs": [
        {
          "internalType": "address",
          "name": "",
          "type": "address"
        }
      ],
      "stateMutability": "view",
      "type": "function"
    },
    {
      "inputs": [],
      "name": "renounceOwnership",
      "outputs": [],
      "stateMutability": "nonpayable",
      "type": "function"
    },
    {
      "inputs": [
        {
          "internalType": "address",
          "name": "from",
          "type": "address"
        },
        {
          "internalType": "address",
          "name": "to",
          "type": "address"
        },
        {
          "internalType": "uint256",
          "name": "tokenId",
          "type": "uint256"
        }
      ],
      "name": "safeTransferFrom",
      "outputs": [],
      "stateMutability": "nonpayable",
      "type": "function"
    },
    {
      "inputs": [
        {
          "internalType": "address",
          "name": "from",
          "type": "address"
        },
        {
          "internalType": "address",
          "name": "to",
          "type": "address"
        },
        {
          "internalType": "uint256",
          "name": "tokenId",
          "type": "uint256"
        },
        {
          "internalType": "bytes",
          "name": "_data",
          "type": "bytes"
        }
      ],
      "name": "safeTransferFrom",
      "outputs": [],
      "stateMutability": "nonpayable",
      "type": "function"
    },
    {
      "inputs": [
        {
          "internalType": "address",
          "name": "operator",
          "type": "address"
        },
        {
          "internalType": "bool",
          "name": "approved",
          "type": "bool"
        }
      ],
      "name": "setApprovalForAll",
      "outputs": [],
      "stateMutability": "nonpayable",
      "type": "function"
    },
    {
      "inputs": [
        {
          "internalType": "bytes4",
          "name": "interfaceId",
          "type": "bytes4"
        }
      ],
      "name": "supportsInterface",
      "outputs": [
        {
          "internalType": "bool",
          "name": "",
          "type": "bool"
        }
      ],
      "stateMutability": "view",
      "type": "function"
    },
    {
      "inputs": [],
      "name": "symbol",
      "outputs": [
        {
          "internalType": "string",
          "name": "",
          "type": "string"
        }
      ],
      "stateMutability": "view",
      "type": "function"
    },
    {
      "inputs": [
        {
          "internalType": "uint256",
          "name": "_tokenId",
          "type": "uint256"
        }
      ],
      "name": "tokenURI",
      "outputs": [
        {
          "internalType": "string",
          "name": "",
          "type": "string"
        }
      ],
      "stateMutability": "pure",
      "type": "function"
    },
    {
      "inputs": [],
      "name": "totalSupply",
      "outputs": [
        {
          "internalType": "uint256",
          "name": "",
          "type": "uint256"
        }
      ],
      "stateMutability": "view",
      "type": "function"
    },
    {
      "inputs": [
        {
          "internalType": "address",
          "name": "from",
          "type": "address"
        },
        {
          "internalType": "address",
          "name": "to",
          "type": "address"
        },
        {
          "internalType": "uint256",
          "name": "tokenId",
          "type": "uint256"
        }
      ],
      "name": "transferFrom",
      "outputs": [],
      "stateMutability": "nonpayable",
      "type": "function"
    },
    {
      "inputs": [
        {
          "internalType": "address",
          "name": "newOwner",
          "type": "address"
        }
      ],
      "name": "transferOwnership",
      "outputs": [],
      "stateMutability": "nonpayable",
      "type": "function"
    },
    {
      "inputs": [
        {
          "internalType": "uint256",
          "name": "_tokenId",
          "type": "uint256"
        }
      ],
      "name": "unpack",
      "outputs": [],
      "stateMutability": "nonpayable",
      "type": "function"
    },
    {
      "inputs": [],
      "name": "baseTokenURI",
      "outputs": [
        {
          "internalType": "string",
          "name": "",
          "type": "string"
        }
      ],
      "stateMutability": "pure",
      "type": "function"
    },
    {
      "inputs": [],
      "name": "itemsPerLootbox",
      "outputs": [
        {
          "internalType": "uint256",
          "name": "",
          "type": "uint256"
        }
      ],
      "stateMutability": "view",
      "type": "function"
    }
  ],
  "bytecode": "0x60806040526006805460ff191690556003600c556000600d553480156200002557600080fd5b506040516200242a3803806200242a8339810160408190526200004891620003e7565b6040518060400160405280600f81526020016e086e4cac2e8eae4ca98dedee884def608b1b815250604051806040016040528060078152602001660989e9ea8849eb60cb1b8152508382828160009080519060200190620000ab92919062000324565b508051620000c190600190602084019062000324565b505050620000de620000d86200014860201b60201c565b62000164565b600b80546001600160a01b0319166001600160a01b03831617905562000111600a620001b6602090811b62000e1a17901c565b6200011c83620001bf565b5050600e80546001600160a01b0319166001600160a01b039390931692909217909155506200045c9050565b60006200015f6200022360201b62000e231760201c565b905090565b600980546001600160a01b038381166001600160a01b0319831681179093556040519116919082907f8be0079c531659141344cd1fd0a4f28419497f9722a3daafe3b4186f6b6457e090600090a35050565b80546001019055565b60065460ff1615620002085760405162461bcd60e51b815260206004820152600e60248201526d185b1c9958591e481a5b9a5d195960921b604482015260640160405180910390fd5b620002138162000282565b506006805460ff19166001179055565b6000333014156200027c57600080368080601f0160208091040260200160405190810160405280939291908181526020018383808284376000920191909152505050503601516001600160a01b031691506200027f9050565b50335b90565b6040518060800160405280604f8152602001620023db604f9139805160209182012082519282019290922060408051808201825260018152603160f81b90840152805180840194909452838101919091527fc89efdaa54c0f20c7adf612882df0950f5a951637e0307cdcb4c672f298b8bc660608401523060808401524660a0808501919091528151808503909101815260c090930190528151910120600755565b82805462000332906200041f565b90600052602060002090601f016020900481019282620003565760008555620003a1565b82601f106200037157805160ff1916838001178555620003a1565b82800160010185558215620003a1579182015b82811115620003a157825182559160200191906001019062000384565b50620003af929150620003b3565b5090565b5b80821115620003af5760008155600101620003b4565b80516001600160a01b0381168114620003e257600080fd5b919050565b60008060408385031215620003fb57600080fd5b6200040683620003ca565b91506200041660208401620003ca565b90509250929050565b600181811c908216806200043457607f821691505b602082108114156200045657634e487b7160e01b600052602260045260246000fd5b50919050565b611f6f806200046c6000396000f3fe6080604052600436106101315760003560e01c806301ffc9a71461013657806306fdde031461016b578063081812fc1461018d578063095ea7b3146101ba5780630c53c51c146101dc5780630f7e5970146101ef57806318160ddd1461021c57806319d554e11461023f57806320379ee51461025457806323b872dd146102695780632d0335ab146102895780633408e470146102bf57806342842e0e146102d25780636352211e146102f257806370a0823114610312578063715018a614610332578063755edd17146103475780638a02be68146103675780638da5cb5b1461038757806395d89b411461039c578063a22cb465146103b1578063b88d4fde146103d1578063c87b56dd146103f1578063d547cfb714610411578063e985e9c514610426578063f2fde38b14610446575b600080fd5b34801561014257600080fd5b50610156610151366004611873565b610466565b60405190151581526020015b60405180910390f35b34801561017757600080fd5b506101806104b8565b60405161016291906118e8565b34801561019957600080fd5b506101ad6101a83660046118fb565b61054a565b6040516101629190611914565b3480156101c657600080fd5b506101da6101d536600461193d565b6105d7565b005b6101806101ea366004611a0b565b6106fa565b3480156101fb57600080fd5b50610180604051806040016040528060018152602001603160f81b81525081565b34801561022857600080fd5b506102316108e3565b604051908152602001610162565b34801561024b57600080fd5b50600c54610231565b34801561026057600080fd5b50600754610231565b34801561027557600080fd5b506101da610284366004611a88565b6108ff565b34801561029557600080fd5b506102316102a4366004611ac9565b6001600160a01b031660009081526008602052604090205490565b3480156102cb57600080fd5b5046610231565b3480156102de57600080fd5b506101da6102ed366004611a88565b610937565b3480156102fe57600080fd5b506101ad61030d3660046118fb565b610952565b34801561031e57600080fd5b5061023161032d366004611ac9565b6109c9565b34801561033e57600080fd5b506101da610a50565b34801561035357600080fd5b506101da610362366004611ac9565b610a9b565b34801561037357600080fd5b506101da6103823660046118fb565b610b03565b34801561039357600080fd5b506101ad610bdf565b3480156103a857600080fd5b50610180610bee565b3480156103bd57600080fd5b506101da6103cc366004611ae6565b610bfd565b3480156103dd57600080fd5b506101da6103ec366004611b24565b610c0f565b3480156103fd57600080fd5b5061018061040c3660046118fb565b610c4e565b34801561041d57600080fd5b50610180610c88565b34801561043257600080fd5b50610156610441366004611b8f565b610ca8565b34801561045257600080fd5b506101da610461366004611ac9565b610d6d565b60006001600160e01b031982166380ac58cd60e01b148061049757506001600160e01b03198216635b5e139f60e01b145b806104b257506301ffc9a760e01b6001600160e01b03198316145b92915050565b6060600080546104c790611bbd565b80601f01602080910402602001604051908101604052809291908181526020018280546104f390611bbd565b80156105405780601f1061051557610100808354040283529160200191610540565b820191906000526020600020905b81548152906001019060200180831161052357829003601f168201915b5050505050905090565b600061055582610e80565b6105bb5760405162461bcd60e51b815260206004820152602c60248201527f4552433732313a20617070726f76656420717565727920666f72206e6f6e657860448201526b34b9ba32b73a103a37b5b2b760a11b60648201526084015b60405180910390fd5b506000908152600460205260409020546001600160a01b031690565b60006105e282610952565b9050806001600160a01b0316836001600160a01b031614156106505760405162461bcd60e51b815260206004820152602160248201527f4552433732313a20617070726f76616c20746f2063757272656e74206f776e656044820152603960f91b60648201526084016105b2565b806001600160a01b0316610662610e9d565b6001600160a01b0316148061067e575061067e81610441610e9d565b6106eb5760405162461bcd60e51b815260206004820152603860248201527f4552433732313a20617070726f76652063616c6c6572206973206e6f74206f776044820152771b995c881b9bdc88185c1c1c9bdd995908199bdc88185b1b60421b60648201526084016105b2565b6106f58383610ea7565b505050565b60408051606081810183526001600160a01b038816600081815260086020908152908590205484528301529181018690526107388782878787610f15565b61078e5760405162461bcd60e51b815260206004820152602160248201527f5369676e657220616e64207369676e617475726520646f206e6f74206d6174636044820152600d60fb1b60648201526084016105b2565b6001600160a01b0387166000908152600860205260409020546107b2906001611005565b6001600160a01b0388166000908152600860205260409081902091909155517f5845892132946850460bff5a0083f71031bc5bf9aadcd40f1de79423eac9b10b9061080290899033908a90611bf8565b60405180910390a1600080306001600160a01b0316888a60405160200161082a929190611c2d565b60408051601f198184030181529082905261084491611c5f565b6000604051808303816000865af19150503d8060008114610881576040519150601f19603f3d011682016040523d82523d6000602084013e610886565b606091505b5091509150816108d75760405162461bcd60e51b815260206004820152601c60248201527b119d5b98dd1a5bdb8818d85b1b081b9bdd081cdd58d8d95cdcd99d5b60221b60448201526064016105b2565b98975050505050505050565b600060016108f0600a5490565b6108fa9190611c91565b905090565b61091061090a610e9d565b82611018565b61092c5760405162461bcd60e51b81526004016105b290611ca8565b6106f58383836110da565b6106f583838360405180602001604052806000815250610c0f565b6000818152600260205260408120546001600160a01b0316806104b25760405162461bcd60e51b815260206004820152602960248201527f4552433732313a206f776e657220717565727920666f72206e6f6e657869737460448201526832b73a103a37b5b2b760b91b60648201526084016105b2565b60006001600160a01b038216610a345760405162461bcd60e51b815260206004820152602a60248201527f4552433732313a2062616c616e636520717565727920666f7220746865207a65604482015269726f206164647265737360b01b60648201526084016105b2565b506001600160a01b031660009081526003602052604090205490565b610a58610e9d565b6001600160a01b0316610a69610bdf565b6001600160a01b031614610a8f5760405162461bcd60e51b81526004016105b290611cf9565b610a996000611268565b565b610aa3610e9d565b6001600160a01b0316610ab4610bdf565b6001600160a01b031614610ada5760405162461bcd60e51b81526004016105b290611cf9565b6000610ae5600a5490565b9050610af5600a80546001019055565b610aff82826112ba565b5050565b610b0b610e9d565b6001600160a01b0316610b1d82610952565b6001600160a01b031614610b3057600080fd5b60005b600c54811015610bd257600e54600d546001600160a01b039091169081906394bf804d90610b5f610e9d565b6040516001600160e01b031960e085901b16815260048101929092526001600160a01b03166024820152604401600060405180830381600087803b158015610ba657600080fd5b505af1158015610bba573d6000803e3d6000fd5b50505050508080610bca90611d2e565b915050610b33565b50610bdc816112d4565b50565b6009546001600160a01b031690565b6060600180546104c790611bbd565b610aff610c08610e9d565b838361135d565b610c20610c1a610e9d565b83611018565b610c3c5760405162461bcd60e51b81526004016105b290611ca8565b610c4884848484611428565b50505050565b6060610c58610c88565b610c618361145b565b604051602001610c72929190611d49565b6040516020818303038152906040529050919050565b6060604051806060016040528060298152602001611ef160299139905090565b600b5460405163c455279160e01b81526000916001600160a01b039081169190841690829063c455279190610ce1908890600401611914565b602060405180830381865afa158015610cfe573d6000803e3d6000fd5b505050506040513d601f19601f82011682018060405250810190610d229190611d78565b6001600160a01b03161415610d3b5760019150506104b2565b6001600160a01b0380851660009081526005602090815260408083209387168352929052205460ff165b949350505050565b610d75610e9d565b6001600160a01b0316610d86610bdf565b6001600160a01b031614610dac5760405162461bcd60e51b81526004016105b290611cf9565b6001600160a01b038116610e115760405162461bcd60e51b815260206004820152602660248201527f4f776e61626c653a206e6577206f776e657220697320746865207a65726f206160448201526564647265737360d01b60648201526084016105b2565b610bdc81611268565b80546001019055565b600033301415610e7a57600080368080601f0160208091040260200160405190810160405280939291908181526020018383808284376000920191909152505050503601516001600160a01b03169150610e7d9050565b50335b90565b6000908152600260205260409020546001600160a01b0316151590565b60006108fa610e23565b600081815260046020526040902080546001600160a01b0319166001600160a01b0384169081179091558190610edc82610952565b6001600160a01b03167f8c5be1e5ebec7d5bd14f71427d1e84f3dd0314c0f7b2291e5b200ac8c7c3b92560405160405180910390a45050565b60006001600160a01b038616610f7b5760405162461bcd60e51b815260206004820152602560248201527f4e61746976654d6574615472616e73616374696f6e3a20494e56414c49445f5360448201526424a3a722a960d91b60648201526084016105b2565b6001610f8e610f8987611558565b6115d5565b6040805160008152602081018083529290925260ff851690820152606081018690526080810185905260a0016020604051602081039080840390855afa158015610fdc573d6000803e3d6000fd5b505050602060405103516001600160a01b0316866001600160a01b031614905095945050505050565b60006110118284611d95565b9392505050565b600061102382610e80565b6110845760405162461bcd60e51b815260206004820152602c60248201527f4552433732313a206f70657261746f7220717565727920666f72206e6f6e657860448201526b34b9ba32b73a103a37b5b2b760a11b60648201526084016105b2565b600061108f83610952565b9050806001600160a01b0316846001600160a01b031614806110ca5750836001600160a01b03166110bf8461054a565b6001600160a01b0316145b80610d655750610d658185610ca8565b826001600160a01b03166110ed82610952565b6001600160a01b0316146111555760405162461bcd60e51b815260206004820152602960248201527f4552433732313a207472616e73666572206f6620746f6b656e2074686174206960448201526839903737ba1037bbb760b91b60648201526084016105b2565b6001600160a01b0382166111b75760405162461bcd60e51b8152602060048201526024808201527f4552433732313a207472616e7366657220746f20746865207a65726f206164646044820152637265737360e01b60648201526084016105b2565b6111c2600082610ea7565b6001600160a01b03831660009081526003602052604081208054600192906111eb908490611c91565b90915550506001600160a01b0382166000908152600360205260408120805460019290611219908490611d95565b909155505060008181526002602052604080822080546001600160a01b0319166001600160a01b038681169182179092559151849391871691600080516020611f1a83398151915291a4505050565b600980546001600160a01b038381166001600160a01b0319831681179093556040519116919082907f8be0079c531659141344cd1fd0a4f28419497f9722a3daafe3b4186f6b6457e090600090a35050565b610aff828260405180602001604052806000815250611605565b60006112df82610952565b90506112ec600083610ea7565b6001600160a01b0381166000908152600360205260408120805460019290611315908490611c91565b909155505060008281526002602052604080822080546001600160a01b0319169055518391906001600160a01b03841690600080516020611f1a833981519152908390a45050565b816001600160a01b0316836001600160a01b031614156113bb5760405162461bcd60e51b815260206004820152601960248201527822a9219b99189d1030b8383937bb32903a379031b0b63632b960391b60448201526064016105b2565b6001600160a01b03838116600081815260056020908152604080832094871680845294825291829020805460ff191686151590811790915591519182527f17307eab39ab6107e8899845ad3d59bd9653f200f220920489ca2b5937696c31910160405180910390a3505050565b6114338484846110da565b61143f84848484611638565b610c485760405162461bcd60e51b81526004016105b290611dad565b60608161147f5750506040805180820190915260018152600360fc1b602082015290565b8160005b81156114a9578061149381611d2e565b91506114a29050600a83611e15565b9150611483565b6000816001600160401b038111156114c3576114c3611969565b6040519080825280601f01601f1916602001820160405280156114ed576020820181803683370190505b5090505b8415610d6557611502600183611c91565b915061150f600a86611e29565b61151a906030611d95565b60f81b81838151811061152f5761152f611e3d565b60200101906001600160f81b031916908160001a905350611551600a86611e15565b94506114f1565b6000604051806080016040528060438152602001611eae60439139805160209182012083518483015160408087015180519086012090516115b8950193845260208401929092526001600160a01b03166040830152606082015260800190565b604051602081830303815290604052805190602001209050919050565b60006115e060075490565b60405161190160f01b60208201526022810191909152604281018390526062016115b8565b61160f838361173d565b61161c6000848484611638565b6106f55760405162461bcd60e51b81526004016105b290611dad565b60006001600160a01b0384163b1561173257836001600160a01b031663150b7a02611661610e9d565b8786866040518563ffffffff1660e01b81526004016116839493929190611e53565b6020604051808303816000875af19250505080156116be575060408051601f3d908101601f191682019092526116bb91810190611e90565b60015b611718573d8080156116ec576040519150601f19603f3d011682016040523d82523d6000602084013e6116f1565b606091505b5080516117105760405162461bcd60e51b81526004016105b290611dad565b805181602001fd5b6001600160e01b031916630a85bd0160e11b149050610d65565b506001949350505050565b6001600160a01b0382166117935760405162461bcd60e51b815260206004820181905260248201527f4552433732313a206d696e7420746f20746865207a65726f206164647265737360448201526064016105b2565b61179c81610e80565b156117e85760405162461bcd60e51b815260206004820152601c60248201527b115490cdcc8c4e881d1bdad95b88185b1c9958591e481b5a5b9d195960221b60448201526064016105b2565b6001600160a01b0382166000908152600360205260408120805460019290611811908490611d95565b909155505060008181526002602052604080822080546001600160a01b0319166001600160a01b0386169081179091559051839290600080516020611f1a833981519152908290a45050565b6001600160e01b031981168114610bdc57600080fd5b60006020828403121561188557600080fd5b81356110118161185d565b60005b838110156118ab578181015183820152602001611893565b83811115610c485750506000910152565b600081518084526118d4816020860160208601611890565b601f01601f19169290920160200192915050565b60208152600061101160208301846118bc565b60006020828403121561190d57600080fd5b5035919050565b6001600160a01b0391909116815260200190565b6001600160a01b0381168114610bdc57600080fd5b6000806040838503121561195057600080fd5b823561195b81611928565b946020939093013593505050565b634e487b7160e01b600052604160045260246000fd5b600082601f83011261199057600080fd5b81356001600160401b03808211156119aa576119aa611969565b604051601f8301601f19908116603f011681019082821181831017156119d2576119d2611969565b816040528381528660208588010111156119eb57600080fd5b836020870160208301376000602085830101528094505050505092915050565b600080600080600060a08688031215611a2357600080fd5b8535611a2e81611928565b945060208601356001600160401b03811115611a4957600080fd5b611a558882890161197f565b9450506040860135925060608601359150608086013560ff81168114611a7a57600080fd5b809150509295509295909350565b600080600060608486031215611a9d57600080fd5b8335611aa881611928565b92506020840135611ab881611928565b929592945050506040919091013590565b600060208284031215611adb57600080fd5b813561101181611928565b60008060408385031215611af957600080fd5b8235611b0481611928565b915060208301358015158114611b1957600080fd5b809150509250929050565b60008060008060808587031215611b3a57600080fd5b8435611b4581611928565b93506020850135611b5581611928565b92506040850135915060608501356001600160401b03811115611b7757600080fd5b611b838782880161197f565b91505092959194509250565b60008060408385031215611ba257600080fd5b8235611bad81611928565b91506020830135611b1981611928565b600181811c90821680611bd157607f821691505b60208210811415611bf257634e487b7160e01b600052602260045260246000fd5b50919050565b6001600160a01b03848116825283166020820152606060408201819052600090611c24908301846118bc565b95945050505050565b60008351611c3f818460208801611890565b60609390931b6001600160601b0319169190920190815260140192915050565b60008251611c71818460208701611890565b9190910192915050565b634e487b7160e01b600052601160045260246000fd5b600082821015611ca357611ca3611c7b565b500390565b60208082526031908201527f4552433732313a207472616e736665722063616c6c6572206973206e6f74206f6040820152701ddb995c881b9bdc88185c1c1c9bdd9959607a1b606082015260800190565b6020808252818101527f4f776e61626c653a2063616c6c6572206973206e6f7420746865206f776e6572604082015260600190565b6000600019821415611d4257611d42611c7b565b5060010190565b60008351611d5b818460208801611890565b835190830190611d6f818360208801611890565b01949350505050565b600060208284031215611d8a57600080fd5b815161101181611928565b60008219821115611da857611da8611c7b565b500190565b60208082526032908201527f4552433732313a207472616e7366657220746f206e6f6e20455243373231526560408201527131b2b4bb32b91034b6b83632b6b2b73a32b960711b606082015260800190565b634e487b7160e01b600052601260045260246000fd5b600082611e2457611e24611dff565b500490565b600082611e3857611e38611dff565b500690565b634e487b7160e01b600052603260045260246000fd5b6001600160a01b0385811682528416602082015260408101839052608060608201819052600090611e86908301846118bc565b9695505050505050565b600060208284031215611ea257600080fd5b81516110118161185d56fe4d6574615472616e73616374696f6e2875696e74323536206e6f6e63652c616464726573732066726f6d2c62797465732066756e6374696f6e5369676e61747572652968747470733a2f2f6372656174757265732d6170692e6f70656e7365612e696f2f6170692f626f782fddf252ad1be2c89b69c2b068fc378daa952ba7f163c4a11628f55a4df523b3efa2646970667358221220d6885105c10d6ac9ca8eae5f2f7439c04a8a8d1a08cc00839c6535b8e0d7075164736f6c634300080b0033454950373132446f6d61696e28737472696e67206e616d652c737472696e672076657273696f6e2c6164647265737320766572696679696e67436f6e74726163742c627974657333322073616c7429",
  "immutableReferences": {},
  "source": "// SPDX-License-Identifier: MIT\n\npragma solidity ^0.8.0;\n\nimport \"./ERC721Tradable.sol\";\nimport \"./Creature.sol\";\nimport \"./IFactoryERC721.sol\";\n\n/**\n * @title CreatureLootBox\n *\n * CreatureLootBox - a tradeable loot box of Creatures.\n */\ncontract CreatureLootBox is ERC721Tradable {\n    uint256 NUM_CREATURES_PER_BOX = 3;\n    uint256 OPTION_ID = 0;\n    address factoryAddress;\n\n    constructor(address _proxyRegistryAddress, address _factoryAddress)\n        ERC721Tradable(\"CreatureLootBox\", \"LOOTBOX\", _proxyRegistryAddress)\n    {\n        factoryAddress = _factoryAddress;\n    }\n\n    function unpack(uint256 _tokenId) public {\n        require(ownerOf(_tokenId) == _msgSender());\n\n        // Insert custom logic for configuring the item here.\n        for (uint256 i = 0; i < NUM_CREATURES_PER_BOX; i++) {\n            // Mint the ERC721 item(s).\n            FactoryERC721 factory = FactoryERC721(factoryAddress);\n            factory.mint(OPTION_ID, _msgSender());\n        }\n\n        // Burn the presale item.\n        _burn(_tokenId);\n    }\n\n    function baseTokenURI() override public pure returns (string memory) {\n        return \"https://creatures-api.opensea.io/api/box/\";\n    }\n\n    function itemsPerLootbox() public view returns (uint256) {\n        return NUM_CREATURES_PER_BOX;\n    }\n}\n",
  "sourcePath": "D:/work/Sam/opensea_nft/contracts/CreatureLootBox.sol",
  "compiler": {
    "name": "solc",
    "version": "0.8.11+commit.d7f03943.Emscripten.clang"
  },
  "schemaVersion": "3.3.4",
  "updatedAt": "2022-02-07T03:39:42.230Z",
  "devdoc": {
    "kind": "dev",
    "methods": {
      "approve(address,uint256)": {
        "details": "See {IERC721-approve}."
      },
      "balanceOf(address)": {
        "details": "See {IERC721-balanceOf}."
      },
      "getApproved(uint256)": {
        "details": "See {IERC721-getApproved}."
      },
      "mintTo(address)": {
        "details": "Mints a token to an address with a tokenURI.",
        "params": {
          "_to": "address of the future owner of the token"
        }
      },
      "name()": {
        "details": "See {IERC721Metadata-name}."
      },
      "owner()": {
        "details": "Returns the address of the current owner."
      },
      "ownerOf(uint256)": {
        "details": "See {IERC721-ownerOf}."
      },
      "renounceOwnership()": {
        "details": "Leaves the contract without owner. It will not be possible to call `onlyOwner` functions anymore. Can only be called by the current owner. NOTE: Renouncing ownership will leave the contract without an owner, thereby removing any functionality that is only available to the owner."
      },
      "safeTransferFrom(address,address,uint256)": {
        "details": "See {IERC721-safeTransferFrom}."
      },
      "safeTransferFrom(address,address,uint256,bytes)": {
        "details": "See {IERC721-safeTransferFrom}."
      },
      "setApprovalForAll(address,bool)": {
        "details": "See {IERC721-setApprovalForAll}."
      },
      "supportsInterface(bytes4)": {
        "details": "See {IERC165-supportsInterface}."
      },
      "symbol()": {
        "details": "See {IERC721Metadata-symbol}."
      },
      "totalSupply()": {
        "details": "Returns the total tokens minted so far. 1 is always subtracted from the Counter since it tracks the next available tokenId."
      },
      "transferFrom(address,address,uint256)": {
        "details": "See {IERC721-transferFrom}."
      },
      "transferOwnership(address)": {
        "details": "Transfers ownership of the contract to a new account (`newOwner`). Can only be called by the current owner."
      }
    },
    "title": "CreatureLootBox CreatureLootBox - a tradeable loot box of Creatures.",
    "version": 1
  },
  "userdoc": {
    "kind": "user",
    "methods": {
      "isApprovedForAll(address,address)": {
        "notice": "Override isApprovedForAll to whitelist user's OpenSea proxy accounts to enable gas-less listings."
      }
    },
    "version": 1
  }
}