{
  "contractName": "CreatureAccessory",
  "abi": [
    {
      "inputs": [
        {
          "internalType": "address",
          "name": "_proxyRegistryAddress",
          "type": "address"
        }
      ],
      "stateMutability": "nonpayable",
      "type": "constructor"
    },
    {
      "anonymous": false,
      "inputs": [
        {
          "indexed": true,
          "internalType": "address",
          "name": "account",
          "type": "address"
        },
        {
          "indexed": true,
          "internalType": "address",
          "name": "operator",
          "type": "address"
        },
        {
          "indexed": false,
          "internalType": "bool",
          "name": "approved",
          "type": "bool"
        }
      ],
      "name": "ApprovalForAll",
      "type": "event"
    },
    {
      "anonymous": false,
      "inputs": [
        {
          "indexed": false,
          "internalType": "address",
          "name": "userAddress",
          "type": "address"
        },
        {
          "indexed": false,
          "internalType": "address payable",
          "name": "relayerAddress",
          "type": "address"
        },
        {
          "indexed": false,
          "internalType": "bytes",
          "name": "functionSignature",
          "type": "bytes"
        }
      ],
      "name": "MetaTransactionExecuted",
      "type": "event"
    },
    {
      "anonymous": false,
      "inputs": [
        {
          "indexed": true,
          "internalType": "address",
          "name": "previousOwner",
          "type": "address"
        },
        {
          "indexed": true,
          "internalType": "address",
          "name": "newOwner",
          "type": "address"
        }
      ],
      "name": "OwnershipTransferred",
      "type": "event"
    },
    {
      "anonymous": false,
      "inputs": [
        {
          "indexed": true,
          "internalType": "address",
          "name": "operator",
          "type": "address"
        },
        {
          "indexed": true,
          "internalType": "address",
          "name": "from",
          "type": "address"
        },
        {
          "indexed": true,
          "internalType": "address",
          "name": "to",
          "type": "address"
        },
        {
          "indexed": false,
          "internalType": "uint256[]",
          "name": "ids",
          "type": "uint256[]"
        },
        {
          "indexed": false,
          "internalType": "uint256[]",
          "name": "values",
          "type": "uint256[]"
        }
      ],
      "name": "TransferBatch",
      "type": "event"
    },
    {
      "anonymous": false,
      "inputs": [
        {
          "indexed": true,
          "internalType": "address",
          "name": "operator",
          "type": "address"
        },
        {
          "indexed": true,
          "internalType": "address",
          "name": "from",
          "type": "address"
        },
        {
          "indexed": true,
          "internalType": "address",
          "name": "to",
          "type": "address"
        },
        {
          "indexed": false,
          "internalType": "uint256",
          "name": "id",
          "type": "uint256"
        },
        {
          "indexed": false,
          "internalType": "uint256",
          "name": "value",
          "type": "uint256"
        }
      ],
      "name": "TransferSingle",
      "type": "event"
    },
    {
      "anonymous": false,
      "inputs": [
        {
          "indexed": false,
          "internalType": "string",
          "name": "value",
          "type": "string"
        },
        {
          "indexed": true,
          "internalType": "uint256",
          "name": "id",
          "type": "uint256"
        }
      ],
      "name": "URI",
      "type": "event"
    },
    {
      "inputs": [],
      "name": "ERC712_VERSION",
      "outputs": [
        {
          "internalType": "string",
          "name": "",
          "type": "string"
        }
      ],
      "stateMutability": "view",
      "type": "function"
    },
    {
      "inputs": [
        {
          "internalType": "address",
          "name": "account",
          "type": "address"
        },
        {
          "internalType": "uint256",
          "name": "id",
          "type": "uint256"
        }
      ],
      "name": "balanceOf",
      "outputs": [
        {
          "internalType": "uint256",
          "name": "",
          "type": "uint256"
        }
      ],
      "stateMutability": "view",
      "type": "function"
    },
    {
      "inputs": [
        {
          "internalType": "address[]",
          "name": "accounts",
          "type": "address[]"
        },
        {
          "internalType": "uint256[]",
          "name": "ids",
          "type": "uint256[]"
        }
      ],
      "name": "balanceOfBatch",
      "outputs": [
        {
          "internalType": "uint256[]",
          "name": "",
          "type": "uint256[]"
        }
      ],
      "stateMutability": "view",
      "type": "function"
    },
    {
      "inputs": [
        {
          "internalType": "address",
          "name": "_to",
          "type": "address"
        },
        {
          "internalType": "uint256[]",
          "name": "_ids",
          "type": "uint256[]"
        },
        {
          "internalType": "uint256[]",
          "name": "_quantities",
          "type": "uint256[]"
        },
        {
          "internalType": "bytes",
          "name": "_data",
          "type": "bytes"
        }
      ],
      "name": "batchMint",
      "outputs": [],
      "stateMutability": "nonpayable",
      "type": "function"
    },
    {
      "inputs": [
        {
          "internalType": "address",
          "name": "_initialOwner",
          "type": "address"
        },
        {
          "internalType": "uint256",
          "name": "_id",
          "type": "uint256"
        },
        {
          "internalType": "uint256",
          "name": "_initialSupply",
          "type": "uint256"
        },
        {
          "internalType": "string",
          "name": "_uri",
          "type": "string"
        },
        {
          "internalType": "bytes",
          "name": "_data",
          "type": "bytes"
        }
      ],
      "name": "create",
      "outputs": [
        {
          "internalType": "uint256",
          "name": "",
          "type": "uint256"
        }
      ],
      "stateMutability": "nonpayable",
      "type": "function"
    },
    {
      "inputs": [
        {
          "internalType": "uint256",
          "name": "",
          "type": "uint256"
        }
      ],
      "name": "creators",
      "outputs": [
        {
          "internalType": "address",
          "name": "",
          "type": "address"
        }
      ],
      "stateMutability": "view",
      "type": "function"
    },
    {
      "inputs": [
        {
          "internalType": "address",
          "name": "userAddress",
          "type": "address"
        },
        {
          "internalType": "bytes",
          "name": "functionSignature",
          "type": "bytes"
        },
        {
          "internalType": "bytes32",
          "name": "sigR",
          "type": "bytes32"
        },
        {
          "internalType": "bytes32",
          "name": "sigS",
          "type": "bytes32"
        },
        {
          "internalType": "uint8",
          "name": "sigV",
          "type": "uint8"
        }
      ],
      "name": "executeMetaTransaction",
      "outputs": [
        {
          "internalType": "bytes",
          "name": "",
          "type": "bytes"
        }
      ],
      "stateMutability": "payable",
      "type": "function"
    },
    {
      "inputs": [
        {
          "internalType": "uint256",
          "name": "_id",
          "type": "uint256"
        }
      ],
      "name": "exists",
      "outputs": [
        {
          "internalType": "bool",
          "name": "",
          "type": "bool"
        }
      ],
      "stateMutability": "view",
      "type": "function"
    },
    {
      "inputs": [],
      "name": "getChainId",
      "outputs": [
        {
          "internalType": "uint256",
          "name": "",
          "type": "uint256"
        }
      ],
      "stateMutability": "view",
      "type": "function"
    },
    {
      "inputs": [],
      "name": "getDomainSeperator",
      "outputs": [
        {
          "internalType": "bytes32",
          "name": "",
          "type": "bytes32"
        }
      ],
      "stateMutability": "view",
      "type": "function"
    },
    {
      "inputs": [
        {
          "internalType": "address",
          "name": "user",
          "type": "address"
        }
      ],
      "name": "getNonce",
      "outputs": [
        {
          "internalType": "uint256",
          "name": "nonce",
          "type": "uint256"
        }
      ],
      "stateMutability": "view",
      "type": "function"
    },
    {
      "inputs": [
        {
          "internalType": "address",
          "name": "_owner",
          "type": "address"
        },
        {
          "internalType": "address",
          "name": "_operator",
          "type": "address"
        }
      ],
      "name": "isApprovedForAll",
      "outputs": [
        {
          "internalType": "bool",
          "name": "isOperator",
          "type": "bool"
        }
      ],
      "stateMutability": "view",
      "type": "function"
    },
    {
      "inputs": [
        {
          "internalType": "address",
          "name": "_to",
          "type": "address"
        },
        {
          "internalType": "uint256",
          "name": "_id",
          "type": "uint256"
        },
        {
          "internalType": "uint256",
          "name": "_quantity",
          "type": "uint256"
        },
        {
          "internalType": "bytes",
          "name": "_data",
          "type": "bytes"
        }
      ],
      "name": "mint",
      "outputs": [],
      "stateMutability": "nonpayable",
      "type": "function"
    },
    {
      "inputs": [],
      "name": "name",
      "outputs": [
        {
          "internalType": "string",
          "name": "",
          "type": "string"
        }
      ],
      "stateMutability": "view",
      "type": "function"
    },
    {
      "inputs": [],
      "name": "owner",
      "outputs": [
        {
          "internalType": "address",
          "name": "",
          "type": "address"
        }
      ],
      "stateMutability": "view",
      "type": "function"
    },
    {
      "inputs": [],
      "name": "renounceOwnership",
      "outputs": [],
      "stateMutability": "nonpayable",
      "type": "function"
    },
    {
      "inputs": [
        {
          "internalType": "address",
          "name": "from",
          "type": "address"
        },
        {
          "internalType": "address",
          "name": "to",
          "type": "address"
        },
        {
          "internalType": "uint256[]",
          "name": "ids",
          "type": "uint256[]"
        },
        {
          "internalType": "uint256[]",
          "name": "amounts",
          "type": "uint256[]"
        },
        {
          "internalType": "bytes",
          "name": "data",
          "type": "bytes"
        }
      ],
      "name": "safeBatchTransferFrom",
      "outputs": [],
      "stateMutability": "nonpayable",
      "type": "function"
    },
    {
      "inputs": [
        {
          "internalType": "address",
          "name": "from",
          "type": "address"
        },
        {
          "internalType": "address",
          "name": "to",
          "type": "address"
        },
        {
          "internalType": "uint256",
          "name": "id",
          "type": "uint256"
        },
        {
          "internalType": "uint256",
          "name": "amount",
          "type": "uint256"
        },
        {
          "internalType": "bytes",
          "name": "data",
          "type": "bytes"
        }
      ],
      "name": "safeTransferFrom",
      "outputs": [],
      "stateMutability": "nonpayable",
      "type": "function"
    },
    {
      "inputs": [
        {
          "internalType": "address",
          "name": "operator",
          "type": "address"
        },
        {
          "internalType": "bool",
          "name": "approved",
          "type": "bool"
        }
      ],
      "name": "setApprovalForAll",
      "outputs": [],
      "stateMutability": "nonpayable",
      "type": "function"
    },
    {
      "inputs": [
        {
          "internalType": "address",
          "name": "_to",
          "type": "address"
        },
        {
          "internalType": "uint256[]",
          "name": "_ids",
          "type": "uint256[]"
        }
      ],
      "name": "setCreator",
      "outputs": [],
      "stateMutability": "nonpayable",
      "type": "function"
    },
    {
      "inputs": [
        {
          "internalType": "uint256",
          "name": "_tokenId",
          "type": "uint256"
        },
        {
          "internalType": "string",
          "name": "_newURI",
          "type": "string"
        }
      ],
      "name": "setCustomURI",
      "outputs": [],
      "stateMutability": "nonpayable",
      "type": "function"
    },
    {
      "inputs": [
        {
          "internalType": "string",
          "name": "_newURI",
          "type": "string"
        }
      ],
      "name": "setURI",
      "outputs": [],
      "stateMutability": "nonpayable",
      "type": "function"
    },
    {
      "inputs": [
        {
          "internalType": "bytes4",
          "name": "interfaceId",
          "type": "bytes4"
        }
      ],
      "name": "supportsInterface",
      "outputs": [
        {
          "internalType": "bool",
          "name": "",
          "type": "bool"
        }
      ],
      "stateMutability": "view",
      "type": "function"
    },
    {
      "inputs": [],
      "name": "symbol",
      "outputs": [
        {
          "internalType": "string",
          "name": "",
          "type": "string"
        }
      ],
      "stateMutability": "view",
      "type": "function"
    },
    {
      "inputs": [
        {
          "internalType": "uint256",
          "name": "",
          "type": "uint256"
        }
      ],
      "name": "tokenSupply",
      "outputs": [
        {
          "internalType": "uint256",
          "name": "",
          "type": "uint256"
        }
      ],
      "stateMutability": "view",
      "type": "function"
    },
    {
      "inputs": [
        {
          "internalType": "uint256",
          "name": "_id",
          "type": "uint256"
        }
      ],
      "name": "totalSupply",
      "outputs": [
        {
          "internalType": "uint256",
          "name": "",
          "type": "uint256"
        }
      ],
      "stateMutability": "view",
      "type": "function"
    },
    {
      "inputs": [
        {
          "internalType": "address",
          "name": "newOwner",
          "type": "address"
        }
      ],
      "name": "transferOwnership",
      "outputs": [],
      "stateMutability": "nonpayable",
      "type": "function"
    },
    {
      "inputs": [
        {
          "internalType": "uint256",
          "name": "_id",
          "type": "uint256"
        }
      ],
      "name": "uri",
      "outputs": [
        {
          "internalType": "string",
          "name": "",
          "type": "string"
        }
      ],
      "stateMutability": "view",
      "type": "function"
    },
    {
      "inputs": [],
      "name": "contractURI",
      "outputs": [
        {
          "internalType": "string",
          "name": "",
          "type": "string"
        }
      ],
      "stateMutability": "pure",
      "type": "function"
    }
  ],
  "bytecode": "0x60806040526003805460ff191690553480156200001b57600080fd5b5060405162003212380380620032128339810160408190526200003e9162000451565b6040518060400160405280601a81526020017f4f70656e536561204372656174757265204163636573736f7279000000000000815250604051806040016040528060048152602001634f53434160e01b815250604051806060016040528060338152602001620031df603391398381620000b881620001bf565b50620000cd620000c7620001d8565b620001f4565b8351620000e290600b906020870190620003ab565b508251620000f890600c906020860190620003ab565b50600780546001600160a01b0319166001600160a01b038316179055600b8054620001b49190620001299062000483565b80601f0160208091040260200160405190810160405280929190818152602001828054620001579062000483565b8015620001a85780601f106200017c57610100808354040283529160200191620001a8565b820191906000526020600020905b8154815290600101906020018083116200018a57829003601f168201915b50506200024692505050565b5050505050620004c0565b8051620001d4906002906020840190620003ab565b5050565b6000620001ef620002aa60201b620013771760201c565b905090565b600680546001600160a01b038381166001600160a01b0319831681179093556040519116919082907f8be0079c531659141344cd1fd0a4f28419497f9722a3daafe3b4186f6b6457e090600090a35050565b60035460ff16156200028f5760405162461bcd60e51b815260206004820152600e60248201526d185b1c9958591e481a5b9a5d195960921b604482015260640160405180910390fd5b6200029a8162000309565b506003805460ff19166001179055565b6000333014156200030357600080368080601f0160208091040260200160405190810160405280939291908181526020018383808284376000920191909152505050503601516001600160a01b03169150620003069050565b50335b90565b6040518060800160405280604f815260200162003190604f9139805160209182012082519282019290922060408051808201825260018152603160f81b90840152805180840194909452838101919091527fc89efdaa54c0f20c7adf612882df0950f5a951637e0307cdcb4c672f298b8bc660608401523060808401524660a0808501919091528151808503909101815260c090930190528151910120600455565b828054620003b99062000483565b90600052602060002090601f016020900481019282620003dd576000855562000428565b82601f10620003f857805160ff191683800117855562000428565b8280016001018555821562000428579182015b82811115620004285782518255916020019190600101906200040b565b50620004369291506200043a565b5090565b5b808211156200043657600081556001016200043b565b6000602082840312156200046457600080fd5b81516001600160a01b03811681146200047c57600080fd5b9392505050565b600181811c908216806200049857607f821691505b60208210811415620004ba57634e487b7160e01b600052602260045260246000fd5b50919050565b612cc080620004d06000396000f3fe6080604052600436106101515760003560e01c8062fdd58e1461015657806301ffc9a71461018957806302fe5305146101b957806306fdde03146101db5780630c53c51c146101fd5780630e89341c146102105780630f7e59701461023057806320379ee51461025d5780632693ebf2146102725780632d0335ab1461029f5780632eb2c2d6146102d55780633408e470146102f557806336a100d5146103085780633adf80b4146103285780634e1273f4146103485780634f558e7914610375578063715018a614610395578063731133e9146103aa5780638da5cb5b146103ca57806395d89b41146103ec578063a22cb46514610401578063b48ab8b614610421578063bd85b03914610441578063cd53d08e1461046e578063d2a6b51a146104a4578063e8a3d485146104c4578063e985e9c5146104d9578063f242432a146104f9578063f2fde38b14610519575b600080fd5b34801561016257600080fd5b50610176610171366004612004565b610539565b6040519081526020015b60405180910390f35b34801561019557600080fd5b506101a96101a4366004612046565b6105d3565b6040519015158152602001610180565b3480156101c557600080fd5b506101d96101d4366004612118565b610623565b005b3480156101e757600080fd5b506101f061066e565b60405161018091906121a4565b6101f061020b3660046121b7565b6106fc565b34801561021c57600080fd5b506101f061022b366004612234565b6108e5565b34801561023c57600080fd5b506101f0604051806040016040528060018152602001603160f81b81525081565b34801561026957600080fd5b50600454610176565b34801561027e57600080fd5b5061017661028d366004612234565b60096020526000908152604090205481565b3480156102ab57600080fd5b506101766102ba36600461224d565b6001600160a01b031660009081526005602052604090205490565b3480156102e157600080fd5b506101d96102f03660046122fe565b610aa3565b34801561030157600080fd5b5046610176565b34801561031457600080fd5b506101766103233660046123ab565b610b4c565b34801561033457600080fd5b506101d9610343366004612404565b610c95565b34801561035457600080fd5b5061036861036336600461244a565b610d34565b6040516101809190612547565b34801561038157600080fd5b506101a9610390366004612234565b610e5d565b3480156103a157600080fd5b506101d9610e68565b3480156103b657600080fd5b506101d96103c536600461255a565b610eb3565b3480156103d657600080fd5b506103df610f33565b60405161018091906125bc565b3480156103f857600080fd5b506101f0610f42565b34801561040d57600080fd5b506101d961041c3660046125d0565b610f4f565b34801561042d57600080fd5b506101d961043c36600461260e565b610f65565b34801561044d57600080fd5b5061017661045c366004612234565b60009081526009602052604090205490565b34801561047a57600080fd5b506103df610489366004612234565b6008602052600090815260409020546001600160a01b031681565b3480156104b057600080fd5b506101d96104bf36600461269c565b611095565b3480156104d057600080fd5b506101f061114c565b3480156104e557600080fd5b506101a96104f43660046126e1565b61116c565b34801561050557600080fd5b506101d961051436600461270f565b611231565b34801561052557600080fd5b506101d961053436600461224d565b6112ca565b60006001600160a01b0383166105aa5760405162461bcd60e51b815260206004820152602b60248201527f455243313135353a2062616c616e636520717565727920666f7220746865207a60448201526a65726f206164647265737360a81b60648201526084015b60405180910390fd5b506000818152602081815260408083206001600160a01b03861684529091529020545b92915050565b60006001600160e01b03198216636cdb3d1360e11b148061060457506001600160e01b031982166303a24d0760e21b145b806105cd57506301ffc9a760e01b6001600160e01b03198316146105cd565b61062b6113d4565b6001600160a01b031661063c610f33565b6001600160a01b0316146106625760405162461bcd60e51b81526004016105a190612777565b61066b816113e3565b50565b600b805461067b906127ac565b80601f01602080910402602001604051908101604052809291908181526020018280546106a7906127ac565b80156106f45780601f106106c9576101008083540402835291602001916106f4565b820191906000526020600020905b8154815290600101906020018083116106d757829003601f168201915b505050505081565b60408051606081810183526001600160a01b0388166000818152600560209081529085902054845283015291810186905261073a87828787876113f6565b6107905760405162461bcd60e51b815260206004820152602160248201527f5369676e657220616e64207369676e617475726520646f206e6f74206d6174636044820152600d60fb1b60648201526084016105a1565b6001600160a01b0387166000908152600560205260409020546107b49060016114e6565b6001600160a01b0388166000908152600560205260409081902091909155517f5845892132946850460bff5a0083f71031bc5bf9aadcd40f1de79423eac9b10b9061080490899033908a906127e1565b60405180910390a1600080306001600160a01b0316888a60405160200161082c929190612816565b60408051601f198184030181529082905261084691612848565b6000604051808303816000865af19150503d8060008114610883576040519150601f19603f3d011682016040523d82523d6000602084013e610888565b606091505b5091509150816108d95760405162461bcd60e51b815260206004820152601c60248201527b119d5b98dd1a5bdb8818d85b1b081b9bdd081cdd58d8d95cdcd99d5b60221b60448201526064016105a1565b98975050505050505050565b60606108f0826114f2565b61094b5760405162461bcd60e51b815260206004820152602660248201527f455243313135355472616461626c65237572693a204e4f4e4558495354454e546044820152652faa27a5a2a760d11b60648201526084016105a1565b6000828152600a602052604081208054610964906127ac565b80601f0160208091040260200160405190810160405280929190818152602001828054610990906127ac565b80156109dd5780601f106109b2576101008083540402835291602001916109dd565b820191906000526020600020905b8154815290600101906020018083116109c057829003601f168201915b50505050509050600081511115610a8d576000838152600a602052604090208054610a07906127ac565b80601f0160208091040260200160405190810160405280929190818152602001828054610a33906127ac565b8015610a805780601f10610a5557610100808354040283529160200191610a80565b820191906000526020600020905b815481529060010190602001808311610a6357829003601f168201915b5050505050915050919050565b610a968361150f565b9392505050565b50919050565b610aab6113d4565b6001600160a01b0316856001600160a01b03161480610ad15750610ad1856104f46113d4565b610b385760405162461bcd60e51b815260206004820152603260248201527f455243313135353a207472616e736665722063616c6c6572206973206e6f74206044820152711bdddb995c881b9bdc88185c1c1c9bdd995960721b60648201526084016105a1565b610b4585858585856115a3565b5050505050565b6000610b566113d4565b6001600160a01b0316610b67610f33565b6001600160a01b031614610b8d5760405162461bcd60e51b81526004016105a190612777565b610b96856114f2565b15610bde5760405162461bcd60e51b8152602060048201526018602482015277746f6b656e205f696420616c72656164792065786973747360401b60448201526064016105a1565b610be66113d4565b600086815260086020526040902080546001600160a01b0319166001600160a01b0392909216919091179055825115610c72576000858152600a602090815260409091208451610c3892860190611f56565b50847f6bb7ff708619ba0610cba295a58592e0451dee2622938c8755667688daf3529b84604051610c6991906121a4565b60405180910390a25b610c7e8686868561174a565b505050600082815260096020526040902055919050565b81610c9e6113d4565b6000828152600860205260409020546001600160a01b03908116911614610cd75760405162461bcd60e51b81526004016105a190612864565b6000838152600a602090815260409091208351610cf692850190611f56565b50827f6bb7ff708619ba0610cba295a58592e0451dee2622938c8755667688daf3529b83604051610d2791906121a4565b60405180910390a2505050565b60608151835114610d995760405162461bcd60e51b815260206004820152602960248201527f455243313135353a206163636f756e747320616e6420696473206c656e677468604482015268040dad2e6dac2e8c6d60bb1b60648201526084016105a1565b600083516001600160401b03811115610db457610db4612063565b604051908082528060200260200182016040528015610ddd578160200160208202803683370190505b50905060005b8451811015610e5557610e28858281518110610e0157610e016128b5565b6020026020010151858381518110610e1b57610e1b6128b5565b6020026020010151610539565b828281518110610e3a57610e3a6128b5565b6020908102919091010152610e4e816128e1565b9050610de3565b509392505050565b60006105cd826114f2565b610e706113d4565b6001600160a01b0316610e81610f33565b6001600160a01b031614610ea75760405162461bcd60e51b81526004016105a190612777565b610eb16000611825565b565b82610ebc6113d4565b6000828152600860205260409020546001600160a01b03908116911614610ef55760405162461bcd60e51b81526004016105a190612864565b610f018585858561174a565b600084815260096020526040902054610f1a90846114e6565b6000948552600960205260409094209390935550505050565b6006546001600160a01b031690565b600c805461067b906127ac565b610f61610f5a6113d4565b8383611877565b5050565b60005b8351811015611082576000848281518110610f8557610f856128b5565b60200260200101519050610f976113d4565b6000828152600860205260409020546001600160a01b039081169116146110185760405162461bcd60e51b815260206004820152602f60248201527f455243313135355472616461626c652362617463684d696e743a204f4e4c595f60448201526e10d491505513d497d0531313d5d151608a1b60648201526084016105a1565b600084838151811061102c5761102c6128b5565b6020026020010151905061105c8160096000858152602001908152602001600020546114e690919063ffffffff16565b60009283526009602052604090922091909155508061107a816128e1565b915050610f68565b5061108f84848484611958565b50505050565b6001600160a01b0382166111005760405162461bcd60e51b815260206004820152602c60248201527f455243313135355472616461626c652373657443726561746f723a20494e564160448201526b2624a22fa0a2222922a9a99760a11b60648201526084016105a1565b60005b8151811015611147576000828281518110611120576111206128b5565b602002602001015190506111348482611aae565b508061113f816128e1565b915050611103565b505050565b6060604051806060016040528060398152602001612c5260399139905090565b60075460405163c455279160e01b81526000916001600160a01b039081169190841690829063c4552791906111a59088906004016125bc565b602060405180830381865afa1580156111c2573d6000803e3d6000fd5b505050506040513d601f19601f820116820180604052508101906111e691906128fc565b6001600160a01b031614156111ff5760019150506105cd565b6001600160a01b0380851660009081526001602090815260408083209387168352929052205460ff165b949350505050565b6112396113d4565b6001600160a01b0316856001600160a01b0316148061125f575061125f856104f46113d4565b6112bd5760405162461bcd60e51b815260206004820152602960248201527f455243313135353a2063616c6c6572206973206e6f74206f776e6572206e6f7260448201526808185c1c1c9bdd995960ba1b60648201526084016105a1565b610b458585858585611b1f565b6112d26113d4565b6001600160a01b03166112e3610f33565b6001600160a01b0316146113095760405162461bcd60e51b81526004016105a190612777565b6001600160a01b03811661136e5760405162461bcd60e51b815260206004820152602660248201527f4f776e61626c653a206e6577206f776e657220697320746865207a65726f206160448201526564647265737360d01b60648201526084016105a1565b61066b81611825565b6000333014156113ce57600080368080601f0160208091040260200160405190810160405280939291908181526020018383808284376000920191909152505050503601516001600160a01b031691506113d19050565b50335b90565b60006113de611377565b905090565b8051610f61906002906020840190611f56565b60006001600160a01b03861661145c5760405162461bcd60e51b815260206004820152602560248201527f4e61746976654d6574615472616e73616374696f6e3a20494e56414c49445f5360448201526424a3a722a960d91b60648201526084016105a1565b600161146f61146a87611c47565b611cc4565b6040805160008152602081018083529290925260ff851690820152606081018690526080810185905260a0016020604051602081039080840390855afa1580156114bd573d6000803e3d6000fd5b505050602060405103516001600160a01b0316866001600160a01b031614905095945050505050565b6000610a968284612919565b6000908152600860205260409020546001600160a01b0316151590565b60606002805461151e906127ac565b80601f016020809104026020016040519081016040528092919081815260200182805461154a906127ac565b80156115975780601f1061156c57610100808354040283529160200191611597565b820191906000526020600020905b81548152906001019060200180831161157a57829003601f168201915b50505050509050919050565b81518351146115c45760405162461bcd60e51b81526004016105a190612931565b6001600160a01b0384166115ea5760405162461bcd60e51b81526004016105a190612979565b60006115f46113d4565b905060005b84518110156116dc576000858281518110611616576116166128b5565b602002602001015190506000858381518110611634576116346128b5565b602090810291909101810151600084815280835260408082206001600160a01b038e1683529093529190912054909150818110156116845760405162461bcd60e51b81526004016105a1906129be565b6000838152602081815260408083206001600160a01b038e8116855292528083208585039055908b168252812080548492906116c1908490612919565b92505081905550505050806116d5906128e1565b90506115f9565b50846001600160a01b0316866001600160a01b0316826001600160a01b03167f4a39dc06d4c0dbc64b70af90fd698a233a518aa5d07e595d983b8c0526c8f7fb878760405161172c929190612a08565b60405180910390a4611742818787878787611cf4565b505050505050565b6001600160a01b0384166117705760405162461bcd60e51b81526004016105a190612a2d565b600061177a6113d4565b90506117958160008761178c88611e50565b610b4588611e50565b6000848152602081815260408083206001600160a01b0389168452909152812080548592906117c5908490612919565b909155505060408051858152602081018590526001600160a01b0380881692600092918516917fc3d58168c5ae7397731d063d5bbf3d657854427343f4c083240f7aacaa2d0f62910160405180910390a4610b4581600087878787611e9b565b600680546001600160a01b038381166001600160a01b0319831681179093556040519116919082907f8be0079c531659141344cd1fd0a4f28419497f9722a3daafe3b4186f6b6457e090600090a35050565b816001600160a01b0316836001600160a01b031614156118eb5760405162461bcd60e51b815260206004820152602960248201527f455243313135353a2073657474696e6720617070726f76616c20737461747573604482015268103337b91039b2b63360b91b60648201526084016105a1565b6001600160a01b03838116600081815260016020908152604080832094871680845294825291829020805460ff191686151590811790915591519182527f17307eab39ab6107e8899845ad3d59bd9653f200f220920489ca2b5937696c31910160405180910390a3505050565b6001600160a01b03841661197e5760405162461bcd60e51b81526004016105a190612a2d565b815183511461199f5760405162461bcd60e51b81526004016105a190612931565b60006119a96113d4565b905060005b8451811015611a46578381815181106119c9576119c96128b5565b60200260200101516000808784815181106119e6576119e66128b5565b602002602001015181526020019081526020016000206000886001600160a01b03166001600160a01b031681526020019081526020016000206000828254611a2e9190612919565b90915550819050611a3e816128e1565b9150506119ae565b50846001600160a01b031660006001600160a01b0316826001600160a01b03167f4a39dc06d4c0dbc64b70af90fd698a233a518aa5d07e595d983b8c0526c8f7fb8787604051611a97929190612a08565b60405180910390a4610b4581600087878787611cf4565b80611ab76113d4565b6000828152600860205260409020546001600160a01b03908116911614611af05760405162461bcd60e51b81526004016105a190612864565b50600090815260086020526040902080546001600160a01b0319166001600160a01b0392909216919091179055565b6001600160a01b038416611b455760405162461bcd60e51b81526004016105a190612979565b6000611b4f6113d4565b9050611b6081878761178c88611e50565b6000848152602081815260408083206001600160a01b038a16845290915290205483811015611ba15760405162461bcd60e51b81526004016105a1906129be565b6000858152602081815260408083206001600160a01b038b8116855292528083208785039055908816825281208054869290611bde908490612919565b909155505060408051868152602081018690526001600160a01b03808916928a821692918616917fc3d58168c5ae7397731d063d5bbf3d657854427343f4c083240f7aacaa2d0f62910160405180910390a4611c3e828888888888611e9b565b50505050505050565b6000604051806080016040528060438152602001612c0f6043913980516020918201208351848301516040808701518051908601209051611ca7950193845260208401929092526001600160a01b03166040830152606082015260800190565b604051602081830303815290604052805190602001209050919050565b6000611ccf60045490565b60405161190160f01b6020820152602281019190915260428101839052606201611ca7565b6001600160a01b0384163b156117425760405163bc197c8160e01b81526001600160a01b0385169063bc197c8190611d389089908990889088908890600401612a6e565b6020604051808303816000875af1925050508015611d73575060408051601f3d908101601f19168201909252611d7091810190612ac0565b60015b611e2057611d7f612add565b806308c379a01415611db95750611d94612af8565b80611d9f5750611dbb565b8060405162461bcd60e51b81526004016105a191906121a4565b505b60405162461bcd60e51b815260206004820152603460248201527f455243313135353a207472616e7366657220746f206e6f6e20455243313135356044820152732932b1b2b4bb32b91034b6b83632b6b2b73a32b960611b60648201526084016105a1565b6001600160e01b0319811663bc197c8160e01b14611c3e5760405162461bcd60e51b81526004016105a190612b81565b60408051600180825281830190925260609160009190602080830190803683370190505090508281600081518110611e8a57611e8a6128b5565b602090810291909101015292915050565b6001600160a01b0384163b156117425760405163f23a6e6160e01b81526001600160a01b0385169063f23a6e6190611edf9089908990889088908890600401612bc9565b6020604051808303816000875af1925050508015611f1a575060408051601f3d908101601f19168201909252611f1791810190612ac0565b60015b611f2657611d7f612add565b6001600160e01b0319811663f23a6e6160e01b14611c3e5760405162461bcd60e51b81526004016105a190612b81565b828054611f62906127ac565b90600052602060002090601f016020900481019282611f845760008555611fca565b82601f10611f9d57805160ff1916838001178555611fca565b82800160010185558215611fca579182015b82811115611fca578251825591602001919060010190611faf565b50611fd6929150611fda565b5090565b5b80821115611fd65760008155600101611fdb565b6001600160a01b038116811461066b57600080fd5b6000806040838503121561201757600080fd5b823561202281611fef565b946020939093013593505050565b6001600160e01b03198116811461066b57600080fd5b60006020828403121561205857600080fd5b8135610a9681612030565b634e487b7160e01b600052604160045260246000fd5b601f8201601f191681016001600160401b038111828210171561209e5761209e612063565b6040525050565b600082601f8301126120b657600080fd5b81356001600160401b038111156120cf576120cf612063565b6040516120e6601f8301601f191660200182612079565b8181528460208386010111156120fb57600080fd5b816020850160208301376000918101602001919091529392505050565b60006020828403121561212a57600080fd5b81356001600160401b0381111561214057600080fd5b611229848285016120a5565b60005b8381101561216757818101518382015260200161214f565b8381111561108f5750506000910152565b6000815180845261219081602086016020860161214c565b601f01601f19169290920160200192915050565b602081526000610a966020830184612178565b600080600080600060a086880312156121cf57600080fd5b85356121da81611fef565b945060208601356001600160401b038111156121f557600080fd5b612201888289016120a5565b9450506040860135925060608601359150608086013560ff8116811461222657600080fd5b809150509295509295909350565b60006020828403121561224657600080fd5b5035919050565b60006020828403121561225f57600080fd5b8135610a9681611fef565b60006001600160401b0382111561228357612283612063565b5060051b60200190565b600082601f83011261229e57600080fd5b813560206122ab8261226a565b6040516122b88282612079565b83815260059390931b85018201928281019150868411156122d857600080fd5b8286015b848110156122f357803583529183019183016122dc565b509695505050505050565b600080600080600060a0868803121561231657600080fd5b853561232181611fef565b9450602086013561233181611fef565b935060408601356001600160401b038082111561234d57600080fd5b61235989838a0161228d565b9450606088013591508082111561236f57600080fd5b61237b89838a0161228d565b9350608088013591508082111561239157600080fd5b5061239e888289016120a5565b9150509295509295909350565b600080600080600060a086880312156123c357600080fd5b85356123ce81611fef565b9450602086013593506040860135925060608601356001600160401b03808211156123f857600080fd5b61237b89838a016120a5565b6000806040838503121561241757600080fd5b8235915060208301356001600160401b0381111561243457600080fd5b612440858286016120a5565b9150509250929050565b6000806040838503121561245d57600080fd5b82356001600160401b038082111561247457600080fd5b818501915085601f83011261248857600080fd5b813560206124958261226a565b6040516124a28282612079565b83815260059390931b85018201928281019150898411156124c257600080fd5b948201945b838610156124e95785356124da81611fef565b825294820194908201906124c7565b965050860135925050808211156124ff57600080fd5b506124408582860161228d565b600081518084526020808501945080840160005b8381101561253c57815187529582019590820190600101612520565b509495945050505050565b602081526000610a96602083018461250c565b6000806000806080858703121561257057600080fd5b843561257b81611fef565b9350602085013592506040850135915060608501356001600160401b038111156125a457600080fd5b6125b0878288016120a5565b91505092959194509250565b6001600160a01b0391909116815260200190565b600080604083850312156125e357600080fd5b82356125ee81611fef565b91506020830135801515811461260357600080fd5b809150509250929050565b6000806000806080858703121561262457600080fd5b843561262f81611fef565b935060208501356001600160401b038082111561264b57600080fd5b6126578883890161228d565b9450604087013591508082111561266d57600080fd5b6126798883890161228d565b9350606087013591508082111561268f57600080fd5b506125b0878288016120a5565b600080604083850312156126af57600080fd5b82356126ba81611fef565b915060208301356001600160401b038111156126d557600080fd5b6124408582860161228d565b600080604083850312156126f457600080fd5b82356126ff81611fef565b9150602083013561260381611fef565b600080600080600060a0868803121561272757600080fd5b853561273281611fef565b9450602086013561274281611fef565b9350604086013592506060860135915060808601356001600160401b0381111561276b57600080fd5b61239e888289016120a5565b6020808252818101527f4f776e61626c653a2063616c6c6572206973206e6f7420746865206f776e6572604082015260600190565b600181811c908216806127c057607f821691505b60208210811415610a9d57634e487b7160e01b600052602260045260246000fd5b6001600160a01b0384811682528316602082015260606040820181905260009061280d90830184612178565b95945050505050565b6000835161282881846020880161214c565b60609390931b6001600160601b0319169190920190815260140192915050565b6000825161285a81846020870161214c565b9190910192915050565b60208082526031908201527f455243313135355472616461626c652363726561746f724f6e6c793a204f4e4c6040820152701657d0d491505513d497d0531313d5d151607a1b606082015260800190565b634e487b7160e01b600052603260045260246000fd5b634e487b7160e01b600052601160045260246000fd5b60006000198214156128f5576128f56128cb565b5060010190565b60006020828403121561290e57600080fd5b8151610a9681611fef565b6000821982111561292c5761292c6128cb565b500190565b60208082526028908201527f455243313135353a2069647320616e6420616d6f756e7473206c656e677468206040820152670dad2e6dac2e8c6d60c31b606082015260800190565b60208082526025908201527f455243313135353a207472616e7366657220746f20746865207a65726f206164604082015264647265737360d81b606082015260800190565b6020808252602a908201527f455243313135353a20696e73756666696369656e742062616c616e636520666f60408201526939103a3930b739b332b960b11b606082015260800190565b604081526000612a1b604083018561250c565b828103602084015261280d818561250c565b60208082526021908201527f455243313135353a206d696e7420746f20746865207a65726f206164647265736040820152607360f81b606082015260800190565b6001600160a01b0386811682528516602082015260a060408201819052600090612a9a9083018661250c565b8281036060840152612aac818661250c565b905082810360808401526108d98185612178565b600060208284031215612ad257600080fd5b8151610a9681612030565b600060033d11156113d15760046000803e5060005160e01c90565b600060443d1015612b065790565b6040516003193d81016004833e81513d6001600160401b038160248401118184111715612b3557505050505090565b8285019150815181811115612b4d5750505050505090565b843d8701016020828501011115612b675750505050505090565b612b7660208286010187612079565b509095945050505050565b60208082526028908201527f455243313135353a204552433131353552656365697665722072656a656374656040820152676420746f6b656e7360c01b606082015260800190565b6001600160a01b03868116825285166020820152604081018490526060810183905260a060808201819052600090612c0390830184612178565b97965050505050505056fe4d6574615472616e73616374696f6e2875696e74323536206e6f6e63652c616464726573732066726f6d2c62797465732066756e6374696f6e5369676e61747572652968747470733a2f2f6372656174757265732d6170692e6f70656e7365612e696f2f636f6e74726163742f6f70656e7365612d65726331313535a2646970667358221220b6ba0e90346564af765bf474c821958857cc931100a38bb3a1ac4317b3fef7be64736f6c634300080b0033454950373132446f6d61696e28737472696e67206e616d652c737472696e672076657273696f6e2c6164647265737320766572696679696e67436f6e74726163742c627974657333322073616c742968747470733a2f2f6372656174757265732d6170692e6f70656e7365612e696f2f6170692f6163636573736f72792f7b69647d",
  "immutableReferences": {},
  "source": "// SPDX-License-Identifier: MIT\n\npragma solidity ^0.8.0;\n\nimport \"./ERC1155Tradable.sol\";\n\n/**\n * @title CreatureAccessory\n * CreatureAccessory - a contract for Creature Accessory semi-fungible tokens.\n */\ncontract CreatureAccessory is ERC1155Tradable {\n    constructor(address _proxyRegistryAddress)\n        ERC1155Tradable(\n            \"OpenSea Creature Accessory\",\n            \"OSCA\",\n            \"https://creatures-api.opensea.io/api/accessory/{id}\",\n            _proxyRegistryAddress\n        ) {}\n\n    function contractURI() public pure returns (string memory) {\n        return \"https://creatures-api.opensea.io/contract/opensea-erc1155\";\n    }\n}\n",
  "sourcePath": "D:/work/Sam/opensea_nft/contracts/CreatureAccessory.sol",
  "compiler": {
    "name": "solc",
    "version": "0.8.11+commit.d7f03943.Emscripten.clang"
  },
  "schemaVersion": "3.3.4",
  "updatedAt": "2022-02-07T03:32:28.278Z",
  "devdoc": {
    "kind": "dev",
    "methods": {
      "balanceOf(address,uint256)": {
        "details": "See {IERC1155-balanceOf}. Requirements: - `account` cannot be the zero address."
      },
      "balanceOfBatch(address[],uint256[])": {
        "details": "See {IERC1155-balanceOfBatch}. Requirements: - `accounts` and `ids` must have the same length."
      },
      "batchMint(address,uint256[],uint256[],bytes)": {
        "details": "Mint tokens for each id in _ids",
        "params": {
          "_data": "Data to pass if receiver is contract",
          "_ids": "Array of ids to mint",
          "_quantities": "Array of amounts of tokens to mint per id",
          "_to": "The address to mint tokens to"
        }
      },
      "create(address,uint256,uint256,string,bytes)": {
        "details": "Creates a new token type and assigns _initialSupply to an address NOTE: remove onlyOwner if you want third parties to create new tokens on       your contract (which may change your IDs) NOTE: The token id must be passed. This allows lazy creation of tokens or       creating NFTs by setting the id's high bits with the method       described in ERC1155 or to use ids representing values other than       successive small integers. If you wish to create ids as successive       small integers you can either subclass this class to count onchain       or maintain the offchain cache of identifiers recommended in       ERC1155 and calculate successive ids from that.",
        "params": {
          "_data": "Data to pass if receiver is contract",
          "_id": "The id of the token to create (must not currenty exist).",
          "_initialOwner": "address of the first owner of the token",
          "_initialSupply": "amount to supply the first owner",
          "_uri": "Optional URI for this token type"
        },
        "returns": {
          "_0": "The newly created token ID"
        }
      },
      "mint(address,uint256,uint256,bytes)": {
        "details": "Mints some amount of tokens to an address",
        "params": {
          "_data": "Data to pass if receiver is contract",
          "_id": "Token ID to mint",
          "_quantity": "Amount of tokens to mint",
          "_to": "Address of the future owner of the token"
        }
      },
      "owner()": {
        "details": "Returns the address of the current owner."
      },
      "renounceOwnership()": {
        "details": "Leaves the contract without owner. It will not be possible to call `onlyOwner` functions anymore. Can only be called by the current owner. NOTE: Renouncing ownership will leave the contract without an owner, thereby removing any functionality that is only available to the owner."
      },
      "safeBatchTransferFrom(address,address,uint256[],uint256[],bytes)": {
        "details": "See {IERC1155-safeBatchTransferFrom}."
      },
      "safeTransferFrom(address,address,uint256,uint256,bytes)": {
        "details": "See {IERC1155-safeTransferFrom}."
      },
      "setApprovalForAll(address,bool)": {
        "details": "See {IERC1155-setApprovalForAll}."
      },
      "setCreator(address,uint256[])": {
        "details": "Change the creator address for given tokens",
        "params": {
          "_ids": "Array of Token IDs to change creator",
          "_to": "Address of the new creator"
        }
      },
      "setCustomURI(uint256,string)": {
        "details": "Will update the base URI for the token",
        "params": {
          "_newURI": "New URI for the token.",
          "_tokenId": "The token to update. _msgSender() must be its creator."
        }
      },
      "setURI(string)": {
        "details": "Sets a new URI for all token types, by relying on the token type ID substitution mechanism https://eips.ethereum.org/EIPS/eip-1155#metadata[defined in the EIP].",
        "params": {
          "_newURI": "New URI for all tokens"
        }
      },
      "supportsInterface(bytes4)": {
        "details": "See {IERC165-supportsInterface}."
      },
      "totalSupply(uint256)": {
        "details": "Returns the total quantity for a token ID",
        "params": {
          "_id": "uint256 ID of the token to query"
        },
        "returns": {
          "_0": "amount of token in existence"
        }
      },
      "transferOwnership(address)": {
        "details": "Transfers ownership of the contract to a new account (`newOwner`). Can only be called by the current owner."
      }
    },
    "title": "CreatureAccessory CreatureAccessory - a contract for Creature Accessory semi-fungible tokens.",
    "version": 1
  },
  "userdoc": {
    "kind": "user",
    "methods": {
      "isApprovedForAll(address,address)": {
        "notice": "Override isApprovedForAll to whitelist user's OpenSea proxy accounts to enable gas-free listings."
      }
    },
    "version": 1
  }
}